:020000040000FA
:0400000008EF06F00F
:1008000000454C4C41204E4F20544520414D410065
:100810004D415252414E4F530000096E0304D8A47B
:1008200014EF04F016EF04F030EF04F00950800FDD
:10083000076E0950046E056A800E0426000E05221C
:10084000040E066E053405320432062E22EF04F043
:100850000450086E0850F2EC05F00750F2EC05F079
:10086000020E0318D8A437EF04F039EF04F053EF69
:1008700004F00950C00F076E0950046E056AC00EDF
:100880000426000E0522040E066E053405320432DD
:10089000062E45EF04F00450086E0850F2EC05F007
:1008A0000750F2EC05F0030E0318D8A45AEF04F039
:1008B0005CEF04F076EF04F00950940F076E0950D6
:1008C000046E056A080E0426000E0522040E066E4C
:1008D000053405320432062E68EF04F00450086E29
:1008E0000850F2EC05F00750F2EC05F0040E031886
:1008F000D8A47DEF04F07FEF04F099EF04F00950E5
:10090000940F076E0950046E056A1C0E0426000E33
:100910000522040E066E053405320432062E8BEFD6
:1009200004F00450086E0850F2EC05F00750F2ECA9
:1009300005F012000C6E0C04D8A4A1EF04F0A3EF94
:1009400004F011EF05F0040EF2EC05F0000EF2ECED
:1009500005F0848003380F0B0D6E03C00EF00D50B0
:10096000F2EC05F00E50F2EC05F004380F0B0D6EB2
:1009700004C00EF00D50F2EC05F00E50F2EC05F054
:1009800005380F0B0D6E05C00EF00D50F2EC05F0A2
:100990000E50F2EC05F006380F0B0D6E06C00EF08F
:1009A0000D50F2EC05F00E50F2EC05F007380F0B8D
:1009B0000D6E07C00EF00D50F2EC05F00E50F2EC8B
:1009C00005F008380F0B0D6E08C00EF00D50F2EC5C
:1009D00005F00E50F2EC05F009380F0B0D6E09C052
:1009E0000EF00D50F2EC05F00E50F2EC05F00A3866
:1009F0000F0B0D6E0AC00EF00D50F2EC05F00E500C
:100A0000F2EC05F08490000EF2EC05F0010EF2EC31
:100A100005F0410E0B6EEE0EE82EFED70B2EFCD726
:100A200000D012000FEC06F0000E0F015E6F000EFA
:100A30005F6F000E956E000E966EBEEC05F0000E18
:100A4000036E0A0E046E1F0E056E1F0E066E1F0E3D
:100A5000076E0E0E086E040E096E000E0A6E010E71
:100A60009AEC04F0010E036E010E0DEC04F0010E81
:100A7000066E080E076E93EC05F0060E156E130E4B
:100A8000146EAE0EE82EFED7142EFCD7152EFAD714
:100A9000020E036E040E0DEC04F0100E066E080E2E
:100AA000076E93EC05F0060E156E130E146EAE0E67
:100AB000E82EFED7142EFCD7152EFAD7010EFEEC29
:100AC00005F061EF05F000EF00F0016E01A06BEFA3
:100AD00005F06DEF05F070EF05F0838871EF05F01C
:100AE000839801A276EF05F078EF05F07BEF05F033
:100AF000838A7CEF05F0839A01A481EF05F083EFF0
:100B000005F086EF05F0838C87EF05F0839C01A646
:100B10008CEF05F08EEF05F091EF05F0838E92EFEC
:100B200005F0839E1200000E0B6E000E0A6EA9EFF8
:100B300005F00A500624086E0B500720096E08C005
:100B4000F6FF09C0F7FF0800F550E3EC05F00A4A8C
:100B50000B2A0A500624086E0B500720096E08C0A5
:100B6000F6FF09C0F7FF0800F5500009D8A4BBEF55
:100B700005F0BDEF05F099EF05F01200030EF2EC61
:100B800005F0030EF2EC05F0030EF2EC05F0020E98
:100B9000F2EC05F0020EF2EC05F0080EF2EC05F0B6
:100BA000000EF2EC05F0080EF2EC05F0000EF2EC8F
:100BB00005F0010EF2EC05F0000EF2EC05F00D0E62
:100BC000F2EC05F01200056E05380F0B036E05C040
:100BD00004F084800350F2EC05F00450F2EC05F0D0
:100BE00084901200026E84948484025065EC05F0B7
:100BF000A60EE82EFED700D084941200036E8480E7
:100C0000000EF2EC05F00304F2EC05F08490120003
:100C1000000EF86E080EF76E000112EF05F0400EA0
:080C2000D36E000ED26E12002B
:020000040020DA
:08000000FFFFFFFFFFFFFFFF00
:020000040030CA
:0E00000000285F3CFFD385FF0FC00FE00F40CC
:00000001FF
