:020000040000FA
:0400000033EF00F0EA
:100008000982F2A40AEF00F00CEF00F031EF00F0E3
:10001800F294074A082A0A0E07180810D8A417EFFE
:1000280000F019EF00F02DEF00F0000E086E000E42
:10003800076E83B022EF00F025EF00F0010E26EFE7
:1000480000F0000EFF0A016E83500118FE0B011824
:10005800836E000ED76E830ED66E0992110052EF92
:1000680000F00F015E9195908390F28EF294F28ADF
:10007800D58CD59AD598D596D550F80B0109D56E5B
:10008800D58E000ED76E820ED66E120059EC00F097
:1000980035EC00F04EEF00F033EF00F0086A076A25
:1000A8000990099200014AEF00F0400ED36E000E4D
:0400B800D26E1200F2
:020000040020DA
:08000000FFFFFFFFFFFFFFFF00
:020000040030CA
:0E00000000285F3CFFD385FF0FC00FE00F40CC
:00000001FF
