:020000040000FA
:040000000CEF00F011
:100008000C820A4A0B2A0AC080FFF2920C92110055
:10001800A2EF00F0AFEC00F0000E0F015C6F000ED5
:100028005E6F000E5F6F000E5B6F5C995C9193884A
:10003800000E956E000E926E000E966EA9EC00F002
:1000480071EC00F08368030E096E8A0E086E560E76
:10005800E82EFED7082EFCD7092EFAD7000E836E9D
:10006800030E096E8A0E086E560EE82EFED7082E6D
:10007800FCD7092EFAD726EF00F00CEF00F0016E3E
:1000880001A049EF00F04BEF00F04EEF00F083883D
:100098004FEF00F0839801A254EF00F056EF00F004
:1000A80059EF00F0838A5AEF00F0839A01A45FEFBA
:1000B80000F061EF00F064EF00F0838C65EF00F072
:1000C800839C01A66AEF00F06CEF00F06FEF00F080
:1000D800838E70EF00F0839E1200030E96EC00F002
:1000E800030E96EC00F0030E96EC00F0020E96EC70
:1000F80000F0020E96EC00F0080E96EC00F0000EF0
:1001080096EC00F0080E96EC00F0000E96EC00F06D
:10011800010E96EC00F0000E96EC00F00D0E96EC39
:1001280000F01200026E84948484025043EC00F0C4
:10013800A60EE82EFED700D0849412000B6A0A6A35
:100148000C900C9200010EEF00F09380F288F2926E
:10015800F19CF28E1200400ED36E000ED26E120089
:020000040020DA
:08000000FFFFFFFFFFFFFFFF00
:020000040030CA
:0E00000000285F3CFFD385FF0FC00FE00F40CC
:00000001FF
