:020000040000FA
:04000000A1EF09F073
:1008000000207920656C200025750000000165BF7F
:100810000CEF04F00EEF04F00FEF04F05E9265BFF2
:100820001CEF04F0655106E16405D8B01AEF04F03E
:100830001CEF04F022EF04F0000E2F6E010E2E6E5E
:1008400026EF04F064C02EF065C02FF062C030F0D7
:1008500063C031F01EC032F01FC033F020C034F04E
:1008600021C035F022C036F023C037F024C038F064
:1008700025C039F0000E3B6E1F0E3A6E000E876FDA
:10088000B8EF04F03A06D8A03B06680E3A24D96EB9
:10089000000E3B20DA6E32C001F033C002F034C0EB
:1008A00003F035C004F036C005F037C006F038C09C
:1008B00007F039C008F00A0E096E000E0A6E000E2D
:1008C0000B6E000E0C6E000E0D6E000E0E6E000E06
:1008D0000F6E000E106ECDEC06F001C026F002C0C7
:1008E00027F003C028F004C029F005C02AF006C094
:1008F0002BF007C02CF008C02DF02650300FDF6E13
:100900002E06D8A02F063006D8A0310632C001F03E
:1009100033C002F034C003F035C004F036C005F037
:1009200037C006F038C007F039C008F00A0E096E6B
:10093000000E0A6E000E0B6E000E0C6E000E0D6E99
:10094000000E0E6E000E0F6E000E106E55EC06F0CF
:1009500001C032F002C033F003C034F004C035F0FF
:1009600005C036F006C037F007C038F008C039F0CF
:100970003A503B10D8B4BFEF04F0C1EF04F0F1EFF0
:1009800004F0325033103410351036103710381050
:100990003910D8A4CEEF04F0D0EF04F042EF04F009
:1009A0002FBEDDEF04F02F5006E12E04D8B0DBEFB0
:1009B00004F0DDEF04F042EF04F031BEE8EF04F0A4
:1009C000315008E13004D8A0E8EF04F0EAEF04F079
:1009D000F1EF04F05EB2EFEF04F0F1EF04F042EF5C
:1009E00004F01CC011F01DC012F0680E3A24136E02
:1009F000000E3B20146E30C015F031C016F0FCEC38
:100A000007F011C01CF012C01DF012003EC0D9FF4B
:100A10003FC0DAFFDECFF6FFDDCFF7FF0800F5506D
:100A2000250AD8A416EF05F018EF05F0B3EF05F08E
:100A30003EC0D9FF3FC0DAFFDE2A000EDD22000EE5
:100A40000001636F000E626F62C05EF063C05FF012
:100A5000646965693EC0D9FF3FC0DAFFDECFF6FFAB
:100A6000DDCFF7FF0800F550750AD8A43AEF05F07E
:100A70003CEF05F07DEF05F03EC0D9FF3FC0DAFF47
:100A8000DE2A000EDD2240C0D9FF41C0DAFFDFCFF1
:100A900042F0020EDE26DFCF43F0000EDD2242C020
:100AA000D9FF43C0DAFFDECF44F0DDCF45F044C0CC
:100AB00046F045C047F0486A496A4A6A4B6A4C6A40
:100AC0004D6A3CC01CF03DC01DF046C01EF047C042
:100AD0001FF048C020F049C021F04AC022F04BC0AE
:100AE00023F04CC024F04DC025F006EC04F01CC0EF
:100AF0003CF01DC03DF0CEEF05F03EC0D9FF3FC039
:100B0000DAFFDECFF6FFDDCFF7FF0800F550250A4C
:100B1000D8A48DEF05F08FEF05F0A6EF05F03EC0ED
:100B2000D9FF3FC0DAFFDE2A000EDD22000E026E82
:100B3000250E016E3CC003F03DC004F035EC07F01B
:100B4000000E3D6E010E3C6ECEEF05F03EC0D9FFAB
:100B50003FC0DAFFDE2A000EDD22000E3D6E000EE1
:100B60003C6ECEEF05F03EC0D9FF3FC0DAFFDECFCE
:100B7000F6FFDDCFF7FF0800F550016E026A3CC0BA
:100B800003F03DC004F035EC07F03EC0D9FF3FC094
:100B9000DAFFDE2A000EDD22A0EF05F01200000EC3
:100BA0000A6E08BED8EF05F0D6EF05F0E2EF05F0CB
:100BB000081E071E061E056C000E062207220822CC
:100BC000010E0A6E04BEE9EF05F0E7EF05F0F3EF62
:100BD00005F0041E031E021E016C000E02220322F9
:100BE0000422010E0A1A000E0B6E000E0C6E000E8F
:100BF0000D6E000E0E6E0550061007100810D8B4CA
:100C000004EF06F006EF06F03CEF06F0010E096E69
:100C100010EF06F0D8900536063607360836092A52
:100C200008AE15EF06F017EF06F00AEF06F0D890C1
:100C30000B360C360D360E360550015C0650025848
:100C40000750035808500458D8A029EF06F02BEF9E
:100C500006F034EF06F00550015E0650025A0750C8
:100C6000035A0850045A0B80D890083207320632D3
:100C70000532092E17EF06F00A50D8B442EF06F0FD
:100C800044EF06F04CEF06F00E1E0D1E0C1E0B6C12
:100C9000000E0C220D220E220BC001F00CC002F03F
:100CA0000DC003F00EC004F0120020EE11F0070E8C
:100CB000DE6AE806FDE209500A100B100C100D1058
:100CC0000E100F101010D8B468EF06F06AEF06F09F
:100CD000BCEF06F0010E196E78EF06F0D8900936D9
:100CE0000A360B360C360D360E360F361036192AEC
:100CF00010AE7DEF06F07FEF06F06EEF06F0D890B5
:100D0000113612361336143615361636173618368F
:100D10000950015C0A5002580B5003580C500458FB
:100D20000D5005580E5006580F50075810500858CF
:100D3000D8A09DEF06F09FEF06F0B0EF06F0095047
:100D4000015E0A50025A0B50035A0C50045A0D50BF
:100D5000055A0E50065A0F50075A1050085A118063
:100D6000D89010320F320E320D320C320B320A3262
:100D70000932192E7FEF06F011C001F012C002F007
:100D800013C003F014C004F015C005F016C006F03F
:100D900017C007F018C008F0120009500A100B1015
:100DA0000C100D100E100F101010D8B4DAEF06F062
:100DB000DCEF06F024EF07F0010E116EEAEF06F00B
:100DC000D89009360A360B360C360D360E360F36ED
:100DD0001036112A10AEEFEF06F0F1EF06F0E0EF5B
:100DE00006F00950015C0A5002580B5003580C5091
:100DF00004580D5005580E5006580F500758105003
:100E00000858D8A006EF07F008EF07F018EF07F032
:100E10000950015E0A50025A0B50035A0C50045AF2
:100E20000D50055A0E50065A0F50075A1050085AC6
:100E3000D89010320F320E320D320C320B320A3291
:100E40000932112EF1EF06F001C001F002C002F0EC
:100E500003C003F004C004F005C005F006C006F0AE
:100E600007C007F008C008F0120003500410D8B4FF
:100E70003CEF07F03EEF07F047EF07F00350041098
:100E8000D8A445EF07F047EF07F04CEF07F001500B
:100E9000B3EC09F099EF07F020EE04F00350D926E7
:100EA0000450DA22DE50DE10D8B459EF07F05BEFC1
:100EB00007F076EF07F020EE04F00350D926045037
:100EC000DA2210EE02F00350E1260450E222DE5056
:100ED000E65CE650800A096EDE50800A0958D8B0F8
:100EE00074EF07F076EF07F099EF07F020EE02F0CD
:100EF0000350D9260450DA22DECF05F0DDCF06F00C
:100F000003C0D9FF04C0DAFFDECF07F0DDCF08F061
:100F100005500724D96E06500820DA6E01C0DFFFA5
:100F200020EE02F00350D9260450DA22DE2A000E09
:100F3000DD221200000E0F015D6F000E5E6F000ECD
:100F4000956EAEEC09F0800E0F6E250E106E000E41
:100F5000116E000E126E5DEC08F078EC09F0000ED8
:100F600040EC09F001C0ADF002C0AEF00C0E40EC58
:100F700009F001C0ABF002C0ACF0920E566E000E4C
:100F8000576E080E586E080E596EADC05AF0AEC0BE
:100F90005BF0F5EC08F0880E566E000E576E080EEA
:100FA000586E080E596EABC05AF0ACC05BF0F5EC51
:100FB00008F0920E0F6E000E106E010E116E080EEC
:100FC000126E8EEC09F0920E0F6E000E106E880EEF
:100FD000116E000E126E8EEC09F00B0E5D6E260E79
:100FE0005C6E5E0EE82EFED75C2EFCD75D2EFAD727
:100FF000AFEF07F000EF00F05EA001EF08F003EFA5
:1010000008F00DEF08F013C00AF014C00BF011C087
:101010000CF012C00DF01EEC09F016BE12EF08F035
:1010200014EF08F01AEF08F015C01AF016C01BF004
:101030001EEF08F0000E1B6E000E1A6E000E196EE9
:10104000000E186E30EF08F0000E026E200E016EDA
:1010500011C003F012C004F035EC07F0184A192A49
:101060001A50185C1950800A176E1B50800A1758C6
:10107000D8A03DEF08F03FEF08F024EF08F05EB095
:1010800044EF08F046EF08F050EF08F013C00AF004
:1010900014C00BF011C00CF012C00DF01EEC09F0E2
:1010A00013C001F014C002F05DEC09F01A500124E5
:1010B000116E1B500220126E1200949C948EB896F2
:1010C000AC94AC980FC005F010C006F011C007F04A
:1010D00012C008F0000E016E120E026E7A0E036E40
:1010E000000E046ECFEC05F001C013F002C014F046
:1010F00003C015F004C016F013C001F014C002F0D4
:1011000015C003F016C004F0400E056E000E066E0A
:10111000000E076E000E086ECFEC05F00104AF6EF6
:10112000AB8EAC9CAC8AAB9CAB88120050C054F028
:1011300051C055F0000E0001616F000E606FB4EFFA
:1011400008F04EC03CF04FC03DF0540E3E6E000E15
:101150003F6E52C040F053C041F006EC05F03C50E9
:10116000000160273D50612354C0F6FF55C0F7FFD2
:101170000800F5500009D8A4C0EF08F0C2EF08F04D
:10118000A1EF08F060C04EF061C04FF0120007C040
:101190000BF008C00CF005C00DF006C00EF00B50AF
:1011A000096E0C500A6E0B4A0C2A09C0F6FF0AC0E1
:1011B000F7FFF86A0DC0D9FF0EC0DAFF0D4A0E2AFC
:1011C000070EF76403D00800F55005D0F6CFE1FF15
:1011D000F7CFE2FFE750DF6EDF50D8A4F2EF08F060
:1011E000F4EF08F0CFEF08F012005A0E00019E6FE6
:1011F000000E9F6F56C0A0F057C0A1F0000EA36F65
:10120000000EA26F000EA56F000EA46FA00E4E6E12
:10121000000E4F6E58C050F059C051F09E0E526EE5
:10122000000E536E96EC08F00001A2515624D96EC0
:10123000A3515720DA6E000EDF6E1200000E106E02
:10124000000E0F6E2FEF09F00EC001F0026A0CC005
:1012500003F00DC004F035EC07F00F4A102A0F50D0
:101260000A24D96E10500B20DA6EDF500E6E0E502D
:10127000D8A43DEF09F03FEF09F024EF09F0120088
:10128000046E04C003F003460346C2500318830BE8
:101290000318C26EC282C2B250EF09F052EF09F0D9
:1012A0004BEF09F0C4500001676F666BC3506613C3
:1012B00066C001F067C002F0120001C003F002C076
:1012C00004F065EF09F0014A022A01C0D9FF02C00B
:1012D000DAFFDF50D8A46FEF09F071EF09F063EF88
:1012E00009F00350015C016E04500258026E1200B6
:1012F0000F015B8192805C8193805D859484830E75
:10130000C216C194C192C050F80B0409C06EC050FF
:10131000C70B1009C06EC08EC28012000FC001F052
:1013200010C002F05DEC09F001500F24056E025070
:101330001020066E11C007F012C008F0C7EC08F0CC
:10134000120000EE60F03C0EEE6AE806FDE15F6A16
:101350005E6A000EF86E00019AEF07F0600ED36E21
:08136000000ED26E1200120013
:020000040020DA
:08000000FFFFFFFFFFFFFFFF00
:020000040030CA
:0E00000000285F3CFFD385FF0FC00FE00F40CC
:00000001FF
