:020000040000FA
:04000000AFEF3FF02F
:107F5E000001C0EF3FF0DEEC3FF0B7EC3FF0120057
:107F6E00400ED36E000ED26E000E9B6E000EB56EDE
:107F7E001200B2EC3FF08380020E026E450E016ECF
:107F8E00AA0EE82EFED7012EFCD7022EFAD783902A
:107F9E00020E026E450E016EAA0EE82EFED7012EBF
:107FAE00FCD7022EFAD7C2EF3FF000EF00F0000E22
:107FBE008D6E000E8C6E000E896E000E8A6E000E97
:107FCE008B6E070E966E000E926E9368C70E946EB1
:107FDE00000E956E000E0F015E6FC40E5D6F3F0EAC
:107FEE005C6F070E5F6F000E5B6F000E856EF18E7D
:027FFE0012006F
:020000040020DA
:08000000FFFFFFFFFFFFFFFF00
:020000040030CA
:0E00000000285F3CFFD385FF0FC00FE00F40CC
:00000001FF
