:020000040000FA
:04000000C6EF09F04E
:07080000002575003A00001D
:10080800000165BF0AEF04F00CEF04F00DEF04F0EF
:100818005E9265BF1AEF04F0655106E16405D8B031
:1008280018EF04F01AEF04F020EF04F0000E2F6E1A
:10083800010E2E6E24EF04F064C02EF065C02FF078
:1008480062C030F063C031F01EC032F01FC033F018
:1008580020C034F021C035F022C036F023C037F074
:1008680024C038F025C039F0000E3B6E1F0E3A6EDA
:10087800000E876FB6EF04F03A06D8A03B06680E64
:100888003A24D96E000E3B20DA6E32C001F033C034
:1008980002F034C003F035C004F036C005F037C0AC
:1008A80006F038C007F039C008F00A0E096E000ECD
:1008B8000A6E000E0B6E000E0C6E000E0D6E000E12
:1008C8000E6E000E0F6E000E106E34EC07F001C0B5
:1008D80026F002C027F003C028F004C029F005C0A4
:1008E8002AF006C02BF007C02CF008C02DF02650C7
:1008F800300FDF6E2E06D8A02F063006D8A031069E
:1009080032C001F033C002F034C003F035C004F047
:1009180036C005F037C006F038C007F039C008F017
:100928000A0E096E000E0A6E000E0B6E000E0C6E9B
:10093800000E0D6E000E0E6E000E0F6E000E106E85
:1009480053EC06F001C032F002C033F003C034F0BB
:1009580004C035F005C036F006C037F007C038F0DF
:1009680008C039F03A503B10D8B4BDEF04F0BFEFDF
:1009780004F0EFEF04F03250331034103510361015
:10098800371038103910D8A4CCEF04F0CEEF04F0AB
:1009980040EF04F02FBEDBEF04F02F5006E12E04E9
:1009A800D8B0D9EF04F0DBEF04F040EF04F031BE2B
:1009B800E6EF04F0315008E13004D8A0E6EF04F087
:1009C800E8EF04F0EFEF04F05EB2EDEF04F0EFEFC4
:1009D80004F040EF04F01CC011F01DC012F0680EC6
:1009E8003A24136E000E3B20146E30C015F031C04F
:1009F80016F001EC08F011C01CF012C01DF0120036
:100A08003EC0D9FF3FC0DAFFDECFF6FFDDCFF7FFEC
:100A18000800F550250AD8A414EF05F016EF05F0E4
:100A2800B1EF05F03EC0D9FF3FC0DAFFDE2A000E65
:100A3800DD22000E0001636F000E626F62C05EF07F
:100A480063C05FF0646965693EC0D9FF3FC0DAFFE3
:100A5800DECFF6FFDDCFF7FF0800F550750AD8A402
:100A680038EF05F03AEF05F07BEF05F03EC0D9FF0F
:100A78003FC0DAFFDE2A000EDD2240C0D9FF41C0A8
:100A8800DAFFDFCF42F0020EDE26DFCF43F0000EA2
:100A9800DD2242C0D9FF43C0DAFFDECF44F0DDCF0C
:100AA80045F044C046F045C047F0486A496A4A6A7A
:100AB8004B6A4C6A4D6A3CC01CF03DC01DF046C0F4
:100AC8001EF047C01FF048C020F049C021F04AC0BE
:100AD80022F04BC023F04CC024F04DC025F004ECAC
:100AE80004F01CC03CF01DC03DF0CCEF05F03EC04A
:100AF800D9FF3FC0DAFFDECFF6FFDDCFF7FF0800F2
:100B0800F550250AD8A48BEF05F08DEF05F0A4EF7A
:100B180005F03EC0D9FF3FC0DAFFDE2A000EDD2215
:100B2800000E026E250E016E3CC003F03DC004F0BD
:100B38009CEC07F0000E3D6E010E3C6ECCEF05F00C
:100B48003EC0D9FF3FC0DAFFDE2A000EDD22000ECC
:100B58003D6E000E3C6ECCEF05F03EC0D9FF3FC0A5
:100B6800DAFFDECFF6FFDDCFF7FF0800F550016EA4
:100B7800026A3CC003F03DC004F09CEC07F03EC0A4
:100B8800D9FF3FC0DAFFDE2A000EDD229EEF05F016
:100B98001200000E0A6E08BED6EF05F0D4EF05F07D
:100BA800E0EF05F0081E071E061E056C000E062263
:100BB80007220822010E0A6E04BEE7EF05F0E5EFF2
:100BC80005F0F1EF05F0041E031E021E016C000E75
:100BD800022203220422010E0A1A000E0B6E000ED6
:100BE8000C6E000E0D6E000E0E6E055006100710EE
:100BF8000810D8B402EF06F004EF06F03AEF06F05A
:100C0800010E096E0EEF06F0D89005360636073647
:100C18000836092A08AE13EF06F015EF06F008EFBC
:100C280006F0D8900B360C360D360E360550015CA2
:100C3800065002580750035808500458D8A027EF08
:100C480006F029EF06F032EF06F00550015E065077
:100C5800025A0750035A0850045A0B80D890083299
:100C6800073206320532092E15EF06F00A50D8B4BD
:100C780040EF06F042EF06F04AEF06F00E1E0D1E9A
:100C88000C1E0B6C000E0C220D220E220BC001F064
:100C98000CC002F00DC003F00EC004F0120020EEEC
:100CA80011F0070EDE6AE806FDE209500A100B1083
:100CB8000C100D100E100F101010D8B466EF06F0BF
:100CC80068EF06F0BAEF06F0010E196E76EF06F03F
:100CD800D89009360A360B360C360D360E360F36D6
:100CE8001036192A10AE7BEF06F07DEF06F06CEF98
:100CF80006F0D890113612361336143615361636D5
:100D0800173618360950015C0A5002580B50035820
:100D18000C5004580D5005580E5006580F500758DF
:100D280010500858D8A09BEF06F09DEF06F0AEEFE4
:100D380006F00950015E0A50025A0B50035A0C5033
:100D4800045A0D50055A0E50065A0F50075A1050A3
:100D5800085A1180D89010320F320E320D320C32F0
:100D68000B320A320932192E7DEF06F011C001F05C
:100D780012C002F013C003F014C004F015C005F04F
:100D880016C006F017C007F018C008F01200000ED1
:100D98000F015D6F000E5E6F000E956EDEEC09F0C0
:100DA800800E0F6E250E106E000E116E000E126E64
:100DB80062EC08F09DEC09F0000E65EC09F001C04A
:100DC800ADF002C0AEF00C0E65EC09F001C0ABF05E
:100DD80002C0ACF0920E566E000E576E010E586EA1
:100DE800080E596EADC05AF0AEC05BF0FAEC08F0D0
:100DF800880E566E000E576E010E586E080E596E0C
:100E0800ABC05AF0ACC05BF0FAEC08F0920E0F6E73
:100E1800000E106E040E116E080E126EB3EC09F07F
:100E2800920E0F6E000E106E880E116E000E126E6E
:100E3800B3EC09F0920E026E000E036E45EC09F059
:100E48001F0E5D6E710E5C6E1E0EE82EFED75C2EB8
:100E5800FCD75D2EFAD700D0E0EF06F000EF00F0E7
:100E680009500A100B100C100D100E100F10101056
:100E7800D8B441EF07F043EF07F08BEF07F0010E0E
:100E8800116E51EF07F0D89009360A360B360C363A
:100E98000D360E360F361036112A10AE56EF07F003
:100EA80058EF07F047EF07F00950015C0A50025865
:100EB8000B5003580C5004580D5005580E50065846
:100EC8000F50075810500858D8A06DEF07F06FEF73
:100ED80007F07FEF07F00950015E0A50025A0B50E5
:100EE800035A0C50045A0D50055A0E50065A0F500A
:100EF800075A1050085AD89010320F320E320D325D
:100F08000C320B320A320932112E58EF07F001C0A9
:100F180001F002C002F003C003F004C004F005C0F1
:100F280005F006C006F007C007F008C008F0120078
:100F380003500410D8B4A3EF07F0A5EF07F0AEEF05
:100F480007F003500410D8A4ACEF07F0AEEF07F099
:100F5800B3EF07F00150E3EC09F000EF08F020EEE2
:100F680004F00350D9260450DA22DE50DE10D8B43B
:100F7800C0EF07F0C2EF07F0DDEF07F020EE04F056
:100F88000350D9260450DA2210EE02F00350E1266D
:100F98000450E222DE50E65CE650800A096EDE501C
:100FA800800A0958D8B0DBEF07F0DDEF07F000EF53
:100FB80008F020EE02F00350D9260450DA22DECFE2
:100FC80005F0DDCF06F003C0D9FF04C0DAFFDECF9D
:100FD80007F0DDCF08F005500724D96E0650082029
:100FE800DA6E01C0DFFF20EE02F00350D92604506C
:100FF800DA22DE2A000EDD2212005EA006EF08F0DB
:1010080008EF08F012EF08F013C00AF014C00BF054
:1010180011C00CF012C00DF023EC09F016BE17EF4A
:1010280008F019EF08F01FEF08F015C01AF016C005
:101038001BF023EF08F0000E1B6E000E1A6E000E58
:10104800196E000E186E35EF08F0000E026E200EB5
:10105800016E11C003F012C004F09CEC07F0184AAE
:10106800192A1A50185C1950800A176E1B50800AEA
:101078001758D8A042EF08F044EF08F029EF08F01D
:101088005EB049EF08F04BEF08F055EF08F013C0D9
:101098000AF014C00BF011C00CF012C00DF023ECD4
:1010A80009F013C001F014C002F082EC09F01A50E4
:1010B8000124116E1B500220126E1200949C948E13
:1010C800B896AC94AC980FC005F010C006F011C0EB
:1010D80007F012C008F0000E016E120E026E7A0EB2
:1010E800036E000E046ECDEC05F001C013F002C0D3
:1010F80014F003C015F004C016F013C001F014C0BA
:1011080002F015C003F016C004F0400E056E000E84
:10111800066E000E076E000E086ECDEC05F0010499
:10112800AF6EAB8EAC9CAC8AAB9CAB88120050C047
:1011380054F051C055F0000E0001616F000E606F51
:10114800B9EF08F04EC03CF04FC03DF0540E3E6E73
:10115800000E3F6E52C040F053C041F004EC05F061
:101168003C50000160273D50612354C0F6FF55C034
:10117800F7FF0800F5500009D8A4C5EF08F0C7EF3D
:1011880008F0A6EF08F060C04EF061C04FF0120002
:1011980007C00BF008C00CF005C00DF006C00EF03B
:1011A8000B50096E0C500A6E0B4A0C2A09C0F6FF48
:1011B8000AC0F7FFF86A0DC0D9FF0EC0DAFF0D4A62
:1011C8000E2A070EF76403D00800F55005D0F6CFB5
:1011D800E1FFF7CFE2FFE750DF6EDF50D8A4F7EF6B
:1011E80008F0F9EF08F0D4EF08F012005A0E0001E9
:1011F8009E6F000E9F6F56C0A0F057C0A1F0000E62
:10120800A36F000EA26F000EA56F000EA46FA00EB4
:101218004E6E000E4F6E58C050F059C051F09E0EE1
:10122800526E000E536E9BEC08F00001A25156243A
:10123800D96EA3515720DA6E000EDF6E1200000E31
:10124800106E000E0F6E34EF09F00EC001F0026A46
:101258000CC003F00DC004F09CEC07F00F4A102AF4
:101268000F500A24D96E10500B20DA6EDF500E6E24
:101278000E50D8A442EF09F044EF09F029EF09F025
:101288001200000E056E000E046E56EF09F00450B1
:101298000224D96E05500320DA6EDF50D3EC09F032
:1012A800044A052A04500224D96E05500320DA6E38
:1012B800DF50D8A462EF09F064EF09F04BEF09F0B2
:1012C8001200046E04C003F003460346C25003181C
:1012D800830B0318C26EC282C2B275EF09F077EFB2
:1012E80009F070EF09F0C4500001676F666BC350D6
:1012F800661366C001F067C002F0120001C003F077
:1013080002C004F08AEF09F0014A022A01C0D9FF9D
:1013180002C0DAFFDF50D8A494EF09F096EF09F085
:1013280088EF09F00350015C016E04500258026E08
:1013380012000F015B8192805C8193805D859484AB
:10134800830EC216C194C192C050F80B0409C06E36
:10135800C050C70B1009C06EC08EC28012000FC0EB
:1013680001F010C002F082EC09F001500F24056E64
:1013780002501020066E11C007F012C008F0CCEC25
:1013880008F0120000EE60F03C0EEE6AE806FDE19F
:101398005F6A5E6A000EF86E0001CBEF06F0016E20
:1013A800ACA2D9EF09F0DBEF09F0D4EF09F001C0E6
:1013B800ADFF1200600ED36E000ED26E1200120046
:020000040020DA
:08000000FFFFFFFFFFFFFFFF00
:020000040030CA
:0E00000000285F3CFFD385FF0FC00FE00F40CC
:00000001FF
