:020000040000FA
:040000002FEF0CF0E2
:0D0800000025342E317500484F4C4100009A
:10080E003EC0D9FF3FC0DAFFDECFF6FFDDCFF7FFE8
:10081E000800F550250AD8A417EF04F019EF04F0DC
:10082E00C2EF05F03EC0D9FF3FC0DAFFDE2A000E50
:10083E00DD22000E0001636F000E626F62C066F073
:10084E0063C067F0646965693EC0D9FF3FC0DAFFD7
:10085E00DECFF6FFDDCFF7FF0800F5502A0AD8A449
:10086E003BEF04F03DEF04F066EF04F03EC0D9FF1D
:10087E003FC0DAFFDE2A000EDD2240C0D9FF41C0A4
:10088E00DAFFDFCF42F0020EDE26DFCF43F0000E9E
:10089E00DD2242C0D9FF43C0DAFFDECF62F0DDCFEA
:1008AE0063F063BF5FEF04F05DEF04F0A9EF04F0B7
:1008BE006681626D631FD8B0632BA9EF04F03EC052
:1008CE00D9FF3FC0DAFFDECF08F0DDCF09F0DFEC55
:1008DE0006F008C062F009C063F07DEF04F03EC080
:1008EE00D9FF3FC0DAFFDE2A000EDD22D00E426EA7
:1008FE00FF0E436E3EC0D9FF3FC0DAFFDECFF6FFDC
:10090E00DDCFF7FF0800F550446E456A425044268D
:10091E004350452245500AE10A0E445CD8A09AEF96
:10092E0004F09DEF04F0010E9EEF04F0000E4E6EEB
:10093E004F6A4E504F10D8A4A7EF04F0A9EF04F061
:10094E0076EF04F03EC0D9FF3FC0DAFFDECFF6FFF0
:10095E00DDCFF7FF0800F5502E0AD8A4B9EF04F04A
:10096E00BBEF04F039EF05F0000E0001656F000ECD
:10097E00646F3EC0D9FF3FC0DAFFDE2A000EDD22D3
:10098E003EC0D9FF3FC0DAFFDECFF6FFDDCFF7FF67
:10099E000800F5502A0AD8A4D7EF04F0D9EF04F0D6
:1009AE00F6EF04F03EC0D9FF3FC0DAFFDE2A000E9C
:1009BE00DD2240C0D9FF41C0DAFFDFCF42F0020E88
:1009CE00DE26DFCF43F0000EDD2242C0D9FF43C04A
:1009DE00DAFFDECF64F0DDCF65F039EF05F03EC013
:1009EE00D9FF3FC0DAFFDECF08F0DDCF09F0DFEC34
:1009FE0006F008C064F009C065F00DEF05F03EC0CA
:100A0E00D9FF3FC0DAFFDE2A000EDD22D00E426E85
:100A1E00FF0E436E3EC0D9FF3FC0DAFFDECFF6FFBA
:100A2E00DDCFF7FF0800F550446E456A425044266C
:100A3E004350452245500AE10A0E445CD8A02AEFE5
:100A4E0005F02DEF05F0010E2EEF05F0000E506EA5
:100A5E00516A50505110D8A437EF05F039EF05F018
:100A6E0006EF05F03EC0D9FF3FC0DAFFDECFF6FF3E
:100A7E00DDCFF7FF0800F550750AD8A449EF05F051
:100A8E004BEF05F08CEF05F03EC0D9FF3FC0DAFF0B
:100A9E00DE2A000EDD2240C0D9FF41C0DAFFDFCFD3
:100AAE0042F0020EDE26DFCF43F0000EDD2242C002
:100ABE00D9FF43C0DAFFDECF44F0DDCF45F044C0AE
:100ACE0046F045C047F0486A496A4A6A4B6A4C6A22
:100ADE004D6A3CC01CF03DC01DF046C01EF047C024
:100AEE001FF048C020F049C021F04AC022F04BC090
:100AFE0023F04CC024F04DC025F0DEEC05F01CC0F8
:100B0E003CF01DC03DF0DDEF05F03EC0D9FF3FC00B
:100B1E00DAFFDECFF6FFDDCFF7FF0800F550250A2E
:100B2E00D8A49CEF05F09EEF05F0B5EF05F03EC0A2
:100B3E00D9FF3FC0DAFFDE2A000EDD22000E026E64
:100B4E00250E016E3CC003F03DC004F098EC09F098
:100B5E00000E3D6E010E3C6EDDEF05F03EC0D9FF7E
:100B6E003FC0DAFFDE2A000EDD22000E3D6E000EC3
:100B7E003C6EDDEF05F03EC0D9FF3FC0DAFFDECFA1
:100B8E00F6FFDDCFF7FF0800F550016E026A3CC09C
:100B9E0003F03DC004F098EC09F03EC0D9FF3FC011
:100BAE00DAFFDE2A000EDD22AFEF05F012000001A3
:100BBE0065BFE4EF05F0E6EF05F0E7EF05F06693AD
:100BCE0065BFF4EF05F0655106E16405D8B0F2EFAC
:100BDE0005F0F4EF05F0FAEF05F0000E2F6E010EA2
:100BEE002E6EFEEF05F064C02EF065C02FF062C0D1
:100BFE0030F063C031F01EC032F01FC033F020C0A1
:100C0E0034F021C035F022C036F023C037F024C0B6
:100C1E0038F025C039F0000E3B6E1F0E3A6E000EF6
:100C2E008F6F90EF06F03A06D8A03B06700E3A246E
:100C3E00D96E000E3B20DA6E32C001F033C002F0E6
:100C4E0034C003F035C004F036C005F037C006F0EE
:100C5E0038C007F039C008F00A0E096E000E0A6E91
:100C6E00000E0B6E000E0C6E000E0D6E000E0E6E54
:100C7E00000E0F6E000E106E30EC09F001C026F063
:100C8E0002C027F003C028F004C029F005C02AF0E6
:100C9E0006C02BF007C02CF008C02DF02650300FE8
:100CAE00DF6E2E06D8A02F063006D8A0310632C031
:100CBE0001F033C002F034C003F035C004F036C08A
:100CCE0005F037C006F038C007F039C008F00A0E3C
:100CDE00096E000E0A6E000E0B6E000E0C6E000EEC
:100CEE000D6E000E0E6E000E0F6E000E106EB8EC36
:100CFE0008F001C032F002C033F003C034F004C07B
:100D0E0035F005C036F006C037F007C038F008C021
:100D1E0039F03A503B10D8B497EF06F099EF06F041
:100D2E00CAEF06F03250331034103510361037102B
:100D3E0038103910D8A4A6EF06F0A8EF06F01AEF77
:100D4E0006F02FBEB5EF06F02F5006E12E04D8B0F8
:100D5E00B3EF06F0B5EF06F01AEF06F031BEC0EFB6
:100D6E0006F0315008E13004D8A0C0EF06F0C2EF13
:100D7E0006F0CAEF06F0000166B3C8EF06F0CAEF40
:100D8E0006F01AEF06F01CC011F01DC012F0700E26
:100D9E003A24136E000E3B20146E30C015F031C095
:100DAE0016F0FDEC09F011C01CF012C01DF012007F
:100DBE00000E166E000E156E000E0F6E000E0E6EED
:100DCE00EBEF06F0084A092A010E146E08C0F6FF72
:100DDE0009C0F7FF0800F550200AD8B4F9EF06F065
:100DEE00FBEF06F018EF07F0F70E0A6EFF0E0B6E14
:100DFE0008C0F6FF09C0F7FF0800F5500C6E0D6A2B
:100E0E000A500C260B500D220D5009E1050E0C5CFC
:100E1E00D8A014EF07F016EF07F018EF07F0000E4A
:100E2E00146E14C010F0116A10501110D8A422EFD5
:100E3E0007F024EF07F0E9EF06F02EEF07F0000EB3
:100E4E000F6E010E0E6E084A092A63EF07F008C0F6
:100E5E00F6FF09C0F7FF0800F5500A6E0B6A0B503B
:100E6E00000AD8B43DEF07F063EF07F00A502B0AE3
:100E7E00D8B42AEF07F0060AD8B426EF07F063EFCE
:100E8E0007F015C001F016C002F0000E046E0A0E37
:100E9E00036E01EC0CF008C0F6FF09C0F7FF080066
:100EAE00F550015E000E025A300E0124156E000E32
:100EBE000220166E2AEF07F0D00E0A6EFF0E0B6E92
:100ECE0008C0F6FF09C0F7FF0800F5500C6E0D6A5A
:100EDE000A500C260B500D220D500AE10A0E0C5C26
:100EEE00D8A07CEF07F07FEF07F0010E80EF07F040
:100EFE00000E126E136A12501310D8A489EF07F069
:100F0E008BEF07F048EF07F00E500F10D8A492EFBA
:100F1E0007F094EF07F0A2EF07F015C00AF016C025
:100F2E000BF00A1E0B1E0A4A0B2A0AC008F00BC051
:100F3E0009F0A6EF07F015C008F016C009F0120070
:100F4E00096E0304D8A4AEEF07F0B0EF07F0CAEFB6
:100F5E0007F00950800F076E0950046E056A800E67
:100F6E000426000E0522040E066E053405320432E8
:100F7E00062EBCEF07F00450086E085023EC0CF060
:100F8E00075023EC0CF0020E0318D8A4D1EF07F093
:100F9E00D3EF07F0EDEF07F00950C00F076E0950C1
:100FAE00046E056AC00E0426000E0522040E066E9F
:100FBE00053405320432062EDFEF07F00450086EBA
:100FCE00085023EC0CF0075023EC0CF0030E031822
:100FDE00D8A4F4EF07F0F6EF07F010EF08F0095081
:100FEE00940F076E0950046E056A940E0426000EC7
:100FFE000522040E066E053405320432062E02EF6B
:10100E0008F00450086E085023EC0CF0075023EC47
:10101E000CF0040E0318D8A417EF08F019EF08F01F
:10102E0033EF08F00950D40F076E0950046E056AAD
:10103E00D40E0426000E0522040E066E053405326B
:10104E000432062E25EF08F00450086E085023ECEB
:10105E000CF0075023EC0CF0120044EC0CF03AECC0
:10106E000CF050EC0BF0EBEC0BF0010E036E020EDD
:10107E00A7EC07F00D0E0001B26FAF0EB16FB60EFA
:10108E00E82EFED7B12FFCD7B22FFAD700F0070EFD
:10109E00066E080E076E60EC0AF0000E97EC0BF071
:1010AE0001C06EF002C06FF00C0E97EC0BF001C099
:1010BE006CF002C06DF00E0E97EC0BF001C06AF0F2
:1010CE0002C06BF09C0E5A6E000E5B6E010E5C6ED3
:1010DE00080E5D6E6EC05EF06FC05FF0FEEC0AF043
:1010EE00960E5A6E000E5B6E010E5C6E080E5D6EF5
:1010FE006CC05EF06DC05FF0FEEC0AF0900E5A6EA2
:10110E00000E5B6E010E5C6E080E5D6E6AC05EF0C8
:10111E006BC05FF0FEEC0AF0020E036E020EA7EC3F
:10112E0007F09C0E066E000E076E60EC0AF0030EC2
:10113E00036E020EA7EC07F0960E066E000E076EFB
:10114E0060EC0AF0040E036E020EA7EC07F0900E90
:10115E00066E000E076E60EC0AF054EF08F000EF1A
:10116E0000F020EE11F0070EDE6AE806FDE20950EF
:10117E000A100B100C100D100E100F101010D8B40A
:10118E00CBEF08F0CDEF08F01FEF09F0010E196E4E
:10119E00DBEF08F0D89009360A360B360C360D36D2
:1011AE000E360F361036192A10AEE0EF08F0E2EFC9
:1011BE0008F0D1EF08F0D8901136123613361436E7
:1011CE0015361636173618360950015C0A50025875
:1011DE000B5003580C5004580D5005580E5006581D
:1011EE000F50075810500858D8A000EF09F002EF22
:1011FE0009F013EF09F00950015E0A50025A0B5024
:10120E00035A0C50045A0D50055A0E50065A0F50E0
:10121E00075A1050085A1180D89010320F320E32E1
:10122E000D320C320B320A320932192EE2EF08F06F
:10123E0011C001F012C002F013C003F014C004F08C
:10124E0015C005F016C006F017C007F018C008F05C
:10125E00120009500A100B100C100D100E100F106A
:10126E001010D8B43DEF09F03FEF09F087EF09F009
:10127E00010E116E4DEF09F0D89009360A360B3675
:10128E000C360D360E360F361036112A10AE52EFC2
:10129E0009F054EF09F043EF09F00950015C0A50D0
:1012AE0002580B5003580C5004580D5005580E5050
:1012BE0006580F50075810500858D8A069EF09F07B
:1012CE006BEF09F07BEF09F00950015E0A50025AEC
:1012DE000B50035A0C50045A0D50055A0E50065A14
:1012EE000F50075A1050085AD89010320F320E3243
:1012FE000D320C320B320A320932112E54EF09F034
:10130E0001C001F002C002F003C003F004C004F0FB
:10131E0005C005F006C006F007C007F008C008F0CB
:10132E00120003500410D8B49FEF09F0A1EF09F09A
:10133E00AAEF09F003500410D8A4A8EF09F0AAEF01
:10134E0009F0AFEF09F0015049EC0CF0FCEF09F099
:10135E0020EE04F00350D9260450DA22DE50DE10BF
:10136E00D8B4BCEF09F0BEEF09F0D9EF09F020EECA
:10137E0004F00350D9260450DA2210EE02F0035086
:10138E00E1260450E222DE50E65CE650800A096E49
:10139E00DE50800A0958D8B0D7EF09F0D9EF09F01E
:1013AE00FCEF09F020EE02F00350D9260450DA22A9
:1013BE00DECF05F0DDCF06F003C0D9FF04C0DAFFA3
:1013CE00DECF07F0DDCF08F005500724D96E0650AA
:1013DE000820DA6E01C0DFFF20EE02F00350D9269E
:1013EE000450DA22DE2A000EDD221200000166A170
:1013FE0003EF0AF005EF0AF00FEF0AF013C00AF040
:10140E0014C00BF011C00CF012C00DF075EC0BF007
:10141E0016BE14EF0AF016EF0AF01CEF0AF015C014
:10142E001AF016C01BF020EF0AF0000E1B6E000E15
:10143E001A6E000E196E000E186E32EF0AF0000EC4
:10144E00026E200E016E11C003F012C004F098EC73
:10145E0009F0184A192A1A50185C1950800A176E8A
:10146E001B50800A1758D8A03FEF0AF041EF0AF040
:10147E0026EF0AF0000166B147EF0AF049EF0AF0D5
:10148E0053EF0AF013C00AF014C00BF011C00CF0A9
:10149E0012C00DF075EC0BF013C001F014C002F089
:1014AE00D0EC0BF01A500124116E1B500220126E5C
:1014BE001200000E0B6E000E0A6E80EF0AF00A503C
:1014CE000624086E0B500720096E08C0F6FF09C0EF
:1014DE00F7FFF86A070EF76403D00800F55005D041
:1014EE00F6CFE1FFF7CFE2FFE75014EC0CF00A4A1B
:1014FE000B2A0A500624086E0B500720096E08C0EE
:10150E00F6FF09C0F7FFF86A070EF76403D008006C
:10151E00F55005D0F6CFE1FFF7CFE2FFE750000917
:10152E00D8A49CEF0AF09EEF0AF066EF0AF01200C4
:10153E0054C058F055C059F0000E0001616F000EF6
:10154E00606FBDEF0AF052C03CF053C03DF0580E34
:10155E003E6E000E3F6E56C040F057C041F007EC95
:10156E0004F03C50000160273D50612358C0F6FF47
:10157E0059C0F7FF0800F5500009D8A4C9EF0AF0CA
:10158E00CBEF0AF0AAEF0AF060C052F061C053F040
:10159E001200016E01A0D6EF0AF0D8EF0AF0DBEFD1
:1015AE000AF08388DCEF0AF0839801A2E1EF0AF0DB
:1015BE00E3EF0AF0E6EF0AF0838AE7EF0AF0839A88
:1015CE0001A4ECEF0AF0EEEF0AF0F1EF0AF0838CD3
:1015DE00F2EF0AF0839C01A6F7EF0AF0F9EF0AF09A
:1015EE00FCEF0AF0838EFDEF0AF0839E12005E0E72
:1015FE000001A46F000EA56F5AC0A6F05BC0A7F045
:10160E00000EA96F000EA86F000EAB6F000EAA6F32
:10161E00A60E526E000E536E5CC054F05DC055F0B7
:10162E00A40E566E000E576E9FEC0AF00001A851E4
:10163E005A24D96EA9515B20DA6E000EDF6E1200AD
:10164E00010E076E200E01180210D8B431EF0BF008
:10165E0033EF0BF04CEF0BF0F70E036EFF0E046E34
:10166E0001C005F002C006F0035005260450062204
:10167E00065009E1050E055CD8A048EF0BF04AEFC5
:10168E000BF04CEF0BF0000E076E07C001F0026A74
:10169E001200030E23EC0CF0030E23EC0CF0030EE1
:1016AE0023EC0CF0020E23EC0CF0020E23EC0CF0EB
:1016BE00080E23EC0CF0000E23EC0CF0080E23ECBD
:1016CE000CF0000E23EC0CF0010E23EC0CF0000ECF
:1016DE0023EC0CF00D0E23EC0CF01200000E106E2D
:1016EE00000E0F6E86EF0BF00EC001F0026A0CC0FA
:1016FE0003F00DC004F098EC09F00F4A102A0F50B9
:10170E000A24D96E10500B20DA6EDF500E6E0E507A
:10171E00D8A494EF0BF096EF0BF07BEF0BF01200CA
:10172E00046E04C003F003460346C2500318830B35
:10173E000318C26EC282C2B2A7EF0BF0A9EF0BF074
:10174E00A2EF0BF0C4500001696F686BC3506813B1
:10175E0068C001F069C002F01200D00E036EFF0ED9
:10176E00046E01C005F002C006F0035005260450B9
:10177E00062206500AE10A0E055CD8A0C9EF0BF04E
:10178E00CCEF0BF0010ECDEF0BF0000E016E026AE6
:10179E00120001C003F002C004F0D8EF0BF0014AB2
:1017AE00022A01C0D9FF02C0DAFFDF50D8A4E2EF4F
:1017BE000BF0E4EF0BF0D6EF0BF00350015C016E73
:1017CE0004500258026E12000F015B8192805C8100
:1017DE0093805D859484830EC216C194C192C050CD
:1017EE00F80B0409C06EC050C70B1009C06EC08E36
:1017FE00C280120001500302F3CF05F0F4CF06F0C1
:10180E0001500402F350062602500302F35006263E
:10181E0005C001F006C002F01200056E05380F0B70
:10182E00036E05C004F08480035023EC0CF00450CA
:10183E0023EC0CF084901200026E84948484025087
:10184E00D0EC0AF0A60EE82EFED700D0849412003B
:10185E0000EE60F0420EEE6AE806FDE1000EF86E54
:10186E00000134EF08F0000E0F015E6F000E5F6F87
:10187E00000E956E000E966E1200400ED36E000E88
:06188E00D26E12001200F0
:020000040020DA
:08000000FFFFFFFFFFFFFFFF00
:020000040030CA
:0E00000000285F3CFFD385FF0FC00FE00F40CC
:00000001FF
