:020000040000FA
:040000008AEF00F093
:100008002C82F6CF0FF0F7CF10F0F8CF11F0F5CF24
:1000180012F0F2A212EF00F014EF00F058EF00F027
:10002800020E2A182B10D8A41CEF00F01EEF00F0C7
:1000380031EF00F00CEC0AF0FEEC07F0000E0D6E4C
:10004800020E0C6E9EEC09F0820E0E6EDE0EE82E8D
:10005800FED70E2EFCD751EF00F0030E2A182B10F6
:10006800D8A439EF00F03BEF00F041EF00F00CECC2
:100078000AF043EC08F022EF00F0040E2A182B10C7
:10008800D8A449EF00F04BEF00F051EF00F00CEC72
:100098000AF0B9EC07F022EF00F0F292F298F0863D
:1000A800000E2B6E020E2A6EF0A05DEF00F05FEFDF
:1000B80000F080EF00F0410E0E6EEE0EE82EFED737
:1000C8000E2EFCD700D00CEC0AF0410E0E6EEE0E90
:1000D800E82EFED70E2EFCD700D066EC07F0000EF7
:1000E8000D6E020E0C6E9EEC09F0F090F096F28800
:1000F800000E2B6E020E2A6E12C0F5FF11C0F8FF1B
:1001080010C0F7FF0FC0F6FF2C9211005FEF09F047
:10080000005245564953494F4E20310052455649F2
:1008100053494F4E2032005245564953494F4E20BE
:100820003300484953544F5249414C00434F4E46C0
:1008300049524D41520050524F424C454D41530098
:1008400043414E544944414400504552534F4E4158
:1008500000474C55434F534100444F5349530025E3
:10086000313030004D454E55002000001E6E1E04F4
:10087000D8A43DEF04F03FEF04F0ADEF04F0040E18
:10088000D0EC09F0000ED0EC09F0848015380F0B85
:100890001F6E15C020F01F50D0EC09F02050D0EC96
:1008A00009F016380F0B1F6E16C020F01F50D0EC49
:1008B00009F02050D0EC09F017380F0B1F6E17C04D
:1008C00020F01F50D0EC09F02050D0EC09F018387F
:1008D0000F0B1F6E18C020F01F50D0EC09F02050F5
:1008E000D0EC09F019380F0B1F6E19C020F01F5003
:1008F000D0EC09F02050D0EC09F01A380F0B1F6E25
:100900001AC020F01F50D0EC09F02050D0EC09F0B4
:100910001B380F0B1F6E1BC020F01F50D0EC09F0CE
:100920002050D0EC09F01C380F0B1F6E1CC020F0BB
:100930001F50D0EC09F02050D0EC09F08490000E4C
:10094000D0EC09F0010ED0EC09F0410E1D6EEE0E58
:10095000E82EFED71D2EFCD700D0020E1E18D8A4FC
:10096000B4EF04F0B6EF04F024EF05F0040ED0EC81
:1009700009F0080ED0EC09F0848015380F0B216EB9
:1009800015C022F02150D0EC09F02250D0EC09F033
:1009900016380F0B216E16C022F02150D0EC09F052
:1009A0002250D0EC09F017380F0B216E17C022F03F
:1009B0002150D0EC09F02250D0EC09F018380F0B80
:1009C000216E18C022F02150D0EC09F02250D0EC5A
:1009D00009F019380F0B216E19C022F02150D0EC0C
:1009E00009F02250D0EC09F01A380F0B216E1AC012
:1009F00022F02150D0EC09F02250D0EC09F01B3845
:100A00000F0B216E1BC022F02150D0EC09F02250B8
:100A1000D0EC09F01C380F0B216E1CC022F02150C5
:100A2000D0EC09F02250D0EC09F08490000ED0EC0C
:100A300009F0010ED0EC09F0410E1D6EEE0EE82E0D
:100A4000FED71D2EFCD700D01200FCEC09F013ECF1
:100A50000AF0000E0F015E6F000E5F6F000E5B6FFD
:100A6000000E5C6F000E956E000E966E010E926E7B
:100A7000000E936E3AEC09F0080E156E0C0E166E11
:100A80000E0E176E0F0E186E0E0E196E0C0E1A6EDD
:100A9000080E1B6E000E1C6E010E36EC04F00E0EDE
:100AA000156E0E0E166E0F0E176E1F0E186E1F0EA1
:100AB000196E1F0E1A6E1F0E1B6E1F0E1C6E020E7D
:100AC00036EC04F013EC07F005EC0AF02AC01EF037
:100AD0002BC01FF08AEC09F080A271EF05F073EFD4
:100AE00005F0B0EF05F080B278EF05F07AEF05F091
:100AF00073EF05F02A4A2B2A2BBE88EF05F02B5006
:100B000009E1050E2A5CD8A088EF05F08AEF05F010
:100B100096EF05F0000E2B6E040E2A6E2AC01EF012
:100B20002BC01FF08AEC09F0AAEF05F02BBEA4EF52
:100B300005F02B5007E1020E2A5CD8B0A2EF05F0B9
:100B4000A4EF05F0AAEF05F0000E2B6E020E2A6E40
:100B50008EEF05F02AC01EF02BC01FF08AEC09F0C2
:100B600080A0B5EF05F0B7EF05F06CEF05F080B0B1
:100B7000BCEF05F0BEEF05F0B7EF05F02A06D8A0F0
:100B80002B062BBECDEF05F02B5009E1050E2A5C9C
:100B9000D8A0CDEF05F0CFEF05F0DBEF05F0000EAC
:100BA0002B6E040E2A6E2AC01EF02BC01FF076ECAE
:100BB00009F0EFEF05F02BBEE9EF05F02B5007E150
:100BC000020E2A5CD8B0E7EF05F0E9EF05F0EFEF91
:100BD00005F0000E2B6E020E2A6ED3EF05F02AC030
:100BE0001EF02BC01FF076EC09F06CEF05F08AEFD9
:100BF00000F01B6E1504D8A400EF06F002EF06F01B
:100C00001CEF06F01B50800F196E1B50166E176AF2
:100C1000800E1626000E1722040E186E1734173297
:100C20001632182E0EEF06F016501A6E1A50D0EC2F
:100C300009F01950D0EC09F0020E1518D8A423EFD2
:100C400006F025EF06F03FEF06F01B50C00F196EBF
:100C50001B50166E176AC00E1626000E1722040EC1
:100C6000186E173417321632182E31EF06F0165060
:100C70001A6E1A50D0EC09F01950D0EC09F0030E9E
:100C80001518D8A446EF06F048EF06F062EF06F01C
:100C90001B50940F196E1B50166E176A940E162671
:100CA000000E1722040E186E173417321632182E43
:100CB00054EF06F016501A6E1A50D0EC09F0195085
:100CC000D0EC09F0040E1518D8A469EF06F06BEF0C
:100CD00006F085EF06F01B50D40F196E1B50166EF0
:100CE000176AD40E1626000E1722040E186E17343B
:100CF00017321632182E77EF06F016501A6E1A5069
:100D0000D0EC09F01950D0EC09F01200096E030480
:100D1000D8A48DEF06F08FEF06F0A9EF06F009508A
:100D2000800F076E0950046E056A800E0426000EBF
:100D30000522040E066E053405320432062E9BEFA2
:100D400006F00450086E0850DCEC09F00750DCECAB
:100D500009F0020E0318D8A4B0EF06F0B2EF06F0C7
:100D6000CCEF06F00950C00F076E0950046E056AFB
:100D7000C00E0426000E0522040E066E0534053250
:100D80000432062EBEEF06F00450086E0850DCEC6C
:100D900009F00750DCEC09F0030E0318D8A4D3EFD8
:100DA00006F0D5EF06F0EFEF06F00950940F076E4E
:100DB0000950046E056A940E0426000E0522040EE6
:100DC000066E053405320432062EE1EF06F00450BB
:100DD000086E0850DCEC09F00750DCEC09F0040E5A
:100DE0000318D8A4F6EF06F0F8EF06F012EF07F0BC
:100DF0000950D40F076E0950046E056AD40E0426FC
:100E0000000E0522040E066E053405320432062E4D
:100E100004EF07F00450086E0850DCEC09F00750AE
:100E2000DCEC09F01200010E156E020EF9EC05F073
:100E3000640E186E080E196EE4EC08F0010E156EC3
:100E40000F0EF9EC05F0020EE8EC09F05F0E186EDB
:100E5000080E196EE4EC08F0410E1E6EEE0EE82E40
:100E6000FED71E2EFCD700D0020E156E020EF9EC36
:100E700005F0510E186E080E196EE4EC08F0410EE4
:100E80001E6EEE0EE82EFED71E2EFCD700D0030EEF
:100E9000156E020EF9EC05F0590E186E080E196E5B
:100EA000E4EC08F0410E1E6EEE0EE82EFED71E2E6C
:100EB000FCD700D0040E156E020EF9EC05F0220EE0
:100EC000186E080E196EE4EC08F01200010E036EA5
:100ED000020E86EC06F0640E066E080E076E0FEC2E
:100EE00009F0010E036E0F0E86EC06F0020EF2EC16
:100EF00009F05F0E066E080E076E0FEC09F0410E4A
:100F00000C6EEE0EE82EFED70C2EFCD700D0020E93
:100F1000036E020E86EC06F0510E066E080E076E8A
:100F20000FEC09F0410E0C6EEE0EE82EFED70C2EE3
:100F3000FCD700D0030E036E020E86EC06F0590EAD
:100F4000066E080E076E0FEC09F0410E0C6EEE0EE9
:100F5000E82EFED70C2EFCD700D0040E036E020E36
:100F600086EC06F0220E066E080E076E0FEC09F0F6
:100F70001200010E036E020E86EC06F0220E066EC3
:100F8000080E076E0FEC09F0410E0C6EEE0EE82E07
:100F9000FED70C2EFCD700D0020E036E020E86EC9C
:100FA00006F0010E066E080E076E0FEC09F0410EFA
:100FB0000C6EEE0EE82EFED70C2EFCD700D0030EE2
:100FC000036E020E86EC06F00C0E066E080E076E1F
:100FD0000FEC09F0410E0C6EEE0EE82EFED70C2E33
:100FE000FCD700D0040E036E020E86EC06F0170E3E
:100FF000066E080E076E0FEC09F01200010E036E6C
:10100000020E86EC06F0510E066E080E076E0FEC0F
:1010100009F0410E0C6EEE0EE82EFED70C2EFCD71A
:1010200000D0020E036E020E86EC06F0360E066E3F
:10103000080E076E0FEC09F0410E0C6EEE0EE82E56
:10104000FED70C2EFCD700D0030E036E020E86ECEA
:1010500006F0400E066E080E076E0FEC09F0410E0A
:101060000C6EEE0EE82EFED70C2EFCD700D0040E30
:10107000036E020E86EC06F02C0E066E080E076E4E
:101080000FEC09F01200010E036E020E86EC06F062
:10109000590E066E080E076E0FEC09F0410E0C6E2D
:1010A000EE0EE82EFED70C2EFCD700D0020E036EFB
:1010B000020E86EC06F0490E066E080E076E0FEC67
:1010C00009F0410E0C6EEE0EE82EFED70C2EFCD76A
:1010D00000D0030E036E020E86EC06F0400E066E84
:1010E000080E076E0FEC09F0410E0C6EEE0EE82EA6
:1010F000FED70C2EFCD700D0040E036E020E86EC39
:1011000006F02C0E066E080E076E0FEC09F01200AA
:10111000136E13A08EEF08F090EF08F093EF08F035
:10112000838894EF08F0839813A299EF08F09BEF5F
:1011300008F09EEF08F0838A9FEF08F0839A13A4CB
:10114000A4EF08F0A6EF08F0A9EF08F0838CAAEF4F
:1011500008F0839C13A6AFEF08F0B1EF08F0B4EFEE
:1011600008F0838EB5EF08F0839E1200016E01A097
:10117000BCEF08F0BEEF08F0C1EF08F08388C2EFC3
:1011800008F0839801A2C7EF08F0C9EF08F0CCEF90
:1011900008F0838ACDEF08F0839A01A4D2EF08F01B
:1011A000D4EF08F0D7EF08F0838CD8EF08F0839CD9
:1011B00001A6DDEF08F0DFEF08F0E2EF08F0838E24
:1011C000E3EF08F0839E1200000E1D6E000E1C6EF1
:1011D000FAEF08F01C5018241A6E1D5019201B6ECF
:1011E0001AC0F6FF1BC0F7FF0800F550B2EC09F07B
:1011F0001C4A1D2A1C5018241A6E1D5019201B6EE3
:101200001AC0F6FF1BC0F7FF0800F5500009D8A46C
:101210000CEF09F00EEF09F0EAEF08F01200000EF3
:101220000B6E000E0A6E25EF09F00A500624086EB8
:101230000B500720096E08C0F6FF09C0F7FF080031
:10124000F550C1EC09F00A4A0B2A0A500624086E30
:101250000B500720096E08C0F6FF09C0F7FF080011
:10126000F5500009D8A437EF09F039EF09F015EF70
:1012700009F01200030ED0EC09F0030ED0EC09F0D7
:10128000030ED0EC09F0020ED0EC09F0020ED0EC07
:1012900009F0080ED0EC09F0000ED0EC09F0080EB1
:1012A000D0EC09F0000ED0EC09F0010ED0EC09F002
:1012B000000ED0EC09F00D0ED0EC09F01200300E4B
:1012C000F66E140EF76E000EF86E0900F5CF2AF0D8
:1012D0000900F5CF2BF0296A286A2C902C92000E79
:1012E000F86E080EF76E000125EF05F01E28156E4A
:1012F000010EF9EC05F0690E186E080E196EE4EC9B
:1013000008F01EC015F0010EF9EC05F0010EE8EC36
:1013100009F012001E04156E010EF9EC05F0690EBD
:10132000186E080E196EE4EC08F01EC015F0010EE0
:10133000F9EC05F0010EE8EC09F012000C28036E40
:10134000010E86EC06F0690E066E080E076E0FECB5
:1013500009F00CC003F0010E86EC06F0010EF2EC71
:1013600009F01200176E17380F0B156E17C016F024
:1013700084801550D0EC09F01650D0EC09F0849020
:101380001200056E05380F0B036E05C004F0848053
:101390000350DCEC09F00450DCEC09F084901200FE
:1013A000146E84948484145088EC08F0A60EE82E01
:1013B000FED700D084941200026E8494848402507C
:1013C000B6EC08F0A60EE82EFED700D084941200EA
:1013D000156E8480000ED0EC09F01504D0EC09F0F5
:1013E00084901200036E8480000EDCEC09F003048C
:1013F000DCEC09F0849012009380F288F292F19C68
:10140000F28EF096F090F19A1200000ED0EC09F0F6
:101410000C0ED0EC09F01200000EDCEC09F0010E0D
:10142000DCEC09F01200400ED36E000ED26E1200FA
:021430000200B8
:020000040020DA
:08000000FFFFFFFFFFFFFFFF00
:020000040030CA
:0E00000000285F3CFFD385FF0FC00FE00F40CC
:00000001FF
