:020000040000FA
:040000008BEF3EF054
:107CE400400ED36E000ED26E12003F0006005B0001
:107CF4004F0066006D007D0007007F0067003F00B5
:107D040006005B004F0066006D007D0007007F00E9
:107D14006700EE0EF66E7C0EF76E000EF86E00EE47
:107D240001F010EE28F00900F5CFEEFFE550E15028
:107D3400FAE1386A376A0001A0EF3EF072EC3EF0D7
:107D4400000E956E000E926E000E0F015C6F938014
:107D5400938081A0B0EF3EF0B2EF3EF0B4EF3EF07E
:107D6400C1EC3EF081A2B9EF3EF0BBEF3EF0ABEFC9
:107D74003EF003EC3FF0ABEF3EF000EF00F0140EEA
:107D8400316E7A0EE82EFED7312EFCD781B0CDEFBE
:107D94003EF0CFEF3EF0C8EF3EF0140E316E7A0E97
:107DA400E82EFED7312EFCD7374A382A37C029F0BF
:107DB40038C02AF0000E2C6E0A0E2B6E46EC3FF0F3
:107DC400D89029362A36150E2924D96E000E2A2079
:107DD400DA6EDF50836E37C029F038C02AF0000E07
:107DE4002C6E0A0E2B6E9EEC3FF0D89029362A3664
:107DF400010E2924D96E000E2A20DA6EDF50806E1F
:107E04001200140E316E7A0EE82EFED7312EFCD7F6
:107E140081B20FEF3FF011EF3FF00AEF3FF0140E85
:107E2400316E7A0EE82EFED7312EFCD73706D8A055
:107E3400380637C029F038C02AF0000E2C6E0A0E1E
:107E44002B6E46EC3FF0D89029362A36150E29249D
:107E5400D96E000E2A20DA6EDF50836E37C029F007
:107E640038C02AF0000E2C6E0A0E2B6E9EEC3FF0EA
:107E7400D89029362A36010E2924D96E000E2A20DC
:107E8400DA6EDF50806E1200000E2E6E2ABE4FEFA7
:107E94003FF04DEF3FF055EF3FF0296C2A1ED8B06C
:107EA4002A2A010E2E6E2CBE5CEF3FF05AEF3FF0F3
:107EB40060EF3FF02B6C2C1ED8B02C2A2B502C10CA
:107EC400D8B467EF3FF069EF3FF08DEF3FF0010E5C
:107ED4002D6E71EF3FF0D8902B362C362D2A2CAE18
:107EE40076EF3FF078EF3FF06DEF3FF02B50295CD9
:107EF4002C502A58D8A081EF3FF083EF3FF087EF52
:107F04003FF02B50295E2C502A5AD8902C322B3219
:107F14002D2E78EF3FF02E50D8B493EF3FF095EF2D
:107F24003FF099EF3FF0296C2A1ED8B02A2A29C0C5
:107F340029F02AC02AF01200000E2E6E2CBEA7EFE4
:107F44003FF0A5EF3FF0ADEF3FF02B6C2C1ED8B007
:107F54002C2A010E2E6E2ABEB4EF3FF0B2EF3FF092
:107F6400BAEF3FF0296C2A1ED8B02A2A010E2E1A25
:107F7400000E306E000E2F6E2B502C10D8B4C5EFAF
:107F84003FF0C7EF3FF0EFEF3FF0010E2D6ECFEF64
:107F94003FF0D8902B362C362D2A2CAED4EF3FF060
:107FA400D6EF3FF0CBEF3FF0D8902F3630362B5042
:107FB400295C2C502A58D8A0E2EF3FF0E4EF3FF0C0
:107FC400E9EF3FF02B50295E2C502A5A2F80D8908D
:107FD4002C322B322D2ED6EF3FF02E50D8B4F5EFA5
:107FE4003FF0F7EF3FF0FBEF3FF02F6C301ED8B0BF
:0C7FF400302A2FC029F030C02AF0120003
:020000040020DA
:08000000FFFFFFFFFFFFFFFF00
:020000040030CA
:0E00000000285F3CFFD385FF0FC00FE00F40CC
:00000001FF
