:020000040000FA
:0400000045EF00F0D8
:060008005782ADEF0BF082
:100018005780D8CF03F0E8CF04F0E0CF05F0FACF4F
:1000280006F0FBCF07F0F2A61CEF00F01EEF00F081
:1000380039EF00F0F2A023EF00F025EF00F039EFE0
:1000480000F081A82AEF00F02CEF00F037EF00F065
:1000580081B831EF00F033EF00F02CEF00F0000131
:100068006007D8A0610772EC0CF007C0FBFF06C060
:10007800FAFF05C0E0FF04C0E8FF03C0D8FF5790AF
:06008800100031EF0CF046
:1008000000686F6C610025303275000045C0D9FF6B
:1008100046C0DAFFDECFF6FFDDCFF7FF0800F55068
:10082000250AD8A416EF04F018EF04F08FEF05F0B6
:1008300045C0D9FF46C0DAFFDE2A000EDD22000ED9
:10084000526E000E516E51C055F052C056F05368B2
:100850005468000E0001986F000E976F76EF04F059
:10086000558045C0D9FF46C0DAFFDE2A000EDD22E2
:1008700076EF04F0558231EF04F0558431EF04F047
:10088000558631EF04F0558831EF04F0000E986F73
:10089000010E976F76EF04F045C0D9FF46C0DAFF2E
:1008A000DECFF6FFDDCFF7FF0800F550496E4A6A4C
:1008B0004A50000AD8B45FEF04F046EF04F0495004
:1008C000200AD8B440EF04F0030AD8B443EF04F090
:1008D000080AD8B43DEF04F0060AD8B430EF04F0AB
:1008E0001D0AD8B43AEF04F046EF04F0975198117E
:1008F000D8B47DEF04F07FEF04F04CEF04F055A086
:1009000084EF04F086EF04F087EF04F0559245C0C1
:10091000D9FF46C0DAFFDECFF6FFDDCFF7FF0800D4
:10092000F5502A0AD8A497EF04F099EF04F0C2EF2B
:1009300004F045C0D9FF46C0DAFFDE2A000EDD22F2
:1009400047C0D9FF48C0DAFFDFCF49F0020EDE26EC
:10095000DFCF4AF0000EDD2249C0D9FF4AC0DAFFDE
:10096000DECF51F0DDCF52F052BEBBEF04F0B9EF55
:1009700004F006EF05F05580516C521ED8B0522A93
:1009800006EF05F045C0D9FF46C0DAFFDECF0FF015
:10099000DDCF10F0ABEC06F00FC051F010C052F0FC
:1009A000D9EF04F045C0D9FF46C0DAFFDE2A000EB9
:1009B000DD22D00E496EFF0E4A6E45C0D9FF46C0FB
:1009C000DAFFDECFF6FFDDCFF7FF0800F5504B6E04
:1009D0004C6A49504B264A504C224C500AE10A0EB0
:1009E0004B5CD8A0F6EF04F0F9EF04F0010EFAEF3B
:1009F00004F0000E0001996F9A6B99519A11D8A4D6
:100A000004EF05F006EF05F0D2EF04F045C0D9FF82
:100A100046C0DAFFDECFF6FFDDCFF7FF0800F55066
:100A2000750AD8A416EF05F018EF05F059EF05F098
:100A300045C0D9FF46C0DAFFDE2A000EDD2247C0DE
:100A4000D9FF48C0DAFFDFCF49F0020EDE26DFCF44
:100A50004AF0000EDD2249C0D9FF4AC0DAFFDECFDE
:100A60004BF0DDCF4CF04BC08FF04CC090F0916B51
:100A7000926B936B946B956B966B43C023F044C061
:100A800024F08FC025F090C026F091C027F092C0CE
:100A900028F093C029F094C02AF095C02BF096C09E
:100AA0002CF0ABEC05F023C043F024C044F0AAEFD7
:100AB00005F045C0D9FF46C0DAFFDECFF6FFDDCF37
:100AC000F7FF0800F550250AD8A469EF05F06BEF91
:100AD00005F082EF05F045C0D9FF46C0DAFFDE2AF7
:100AE000000EDD22000E096E250E086E43C00AF0CE
:100AF00044C00BF088EC09F0000E446E010E436E0A
:100B0000AAEF05F045C0D9FF46C0DAFFDE2A000E85
:100B1000DD22000E446E000E436EAAEF05F045C0C4
:100B2000D9FF46C0DAFFDECFF6FFDDCFF7FF0800C2
:100B3000F550086E096A43C00AF044C00BF088EC17
:100B400009F045C0D9FF46C0DAFFDE2A000EDD22DB
:100B50007CEF05F0120054BEB0EF05F0B2EF05F0E7
:100B6000B3EF05F0559254BEC0EF05F0545006E1C6
:100B70005304D8B0BEEF05F0C0EF05F0C6EF05F0A6
:100B8000000E366E010E356ECAEF05F053C035F01B
:100B900054C036F051C037F052C038F025C039F09B
:100BA00026C03AF027C03BF028C03CF029C03DF0F9
:100BB0002AC03EF02BC03FF02CC040F0000E426E29
:100BC0001F0E416E000E0001856F5DEF06F04106BD
:100BD000D8A04206660E4124D96E000E4220DA6E7D
:100BE00039C008F03AC009F03BC00AF03CC00BF035
:100BF0003DC00CF03EC00DF03FC00EF040C00FF005
:100C00000A0E106E000E116E000E126E000E136EA4
:100C1000000E146E000E156E000E166E000E176E8E
:100C200020EC09F008C02DF009C02EF00AC02FF00A
:100C30000BC030F00CC031F00DC032F00EC033F0FC
:100C40000FC034F02D50300FDF6E3506D8A03606B9
:100C50003706D8A0380639C008F03AC009F03BC0C2
:100C60000AF03CC00BF03DC00CF03EC00DF03FC0A0
:100C70000EF040C00FF00A0E106E000E116E000E46
:100C8000126E000E136E000E146E000E156E000E26
:100C9000166E000E176EA8EC08F008C039F009C0F7
:100CA0003AF00AC03BF00BC03CF00CC03DF00DC068
:100CB0003EF00EC03FF00FC040F041504210D8B49B
:100CC00064EF06F066EF06F096EF06F039503A1042
:100CD0003B103C103D103E103F104010D8A473EF65
:100CE00006F075EF06F0E7EF05F036BE82EF06F08E
:100CF000365006E13504D8B080EF06F082EF06F0FA
:100D0000E7EF05F038BE8DEF06F0385008E1370404
:100D1000D8A08DEF06F08FEF06F096EF06F055B2F3
:100D200094EF06F096EF06F0E7EF05F023C018F019
:100D300024C019F0660E41241A6E000E42201B6E6C
:100D400037C01CF038C01DF0EDEC09F018C023F0DE
:100D500019C024F01200000E1D6E000E1C6E000E55
:100D6000166E000E156EB7EF06F00F4A102A010E30
:100D70001B6E0FC0F6FF10C0F7FF0800F550200AE9
:100D8000D8B4C5EF06F0C7EF06F0E4EF06F0F70EB3
:100D9000116EFF0E126E0FC0F6FF10C0F7FF0800B5
:100DA000F550136E146A1150132612501422145069
:100DB00009E1050E135CD8A0E0EF06F0E2EF06F0C3
:100DC000E4EF06F0000E1B6E1BC017F0186A1750F8
:100DD0001810D8A4EEEF06F0F0EF06F0B5EF06F02D
:100DE000FAEF06F0000E166E010E156E0F4A102A6D
:100DF0002FEF07F00FC0F6FF10C0F7FF0800F55007
:100E0000116E126A1250000AD8B409EF07F02FEFE2
:100E100007F011502B0AD8B4F6EF06F0060AD8B442
:100E2000F2EF06F02FEF07F01CC008F01DC009F02C
:100E3000000E0B6E0A0E0A6E44EC0CF00FC0F6FFAB
:100E400010C0F7FF0800F550085E000E095A300E7A
:100E500008241C6E000E09201D6EF6EF06F0D00E61
:100E6000116EFF0E126E0FC0F6FF10C0F7FF0800E4
:100E7000F550136E146A1150132612501422145098
:100E80000AE10A0E135CD8A048EF07F04BEF07F019
:100E9000010E4CEF07F0000E196E1A6A19501A1065
:100EA000D8A455EF07F057EF07F014EF07F01550EF
:100EB0001610D8A45EEF07F060EF07F06EEF07F0B2
:100EC0001CC011F01DC012F0111E121E114A122A70
:100ED00011C00FF012C010F072EF07F01CC00FF03D
:100EE0001DC010F0120087EC0CF066EC0BF0F28ED7
:100EF000F28CF28C000E956E000E0F015E6F000EEC
:100F0000966E020E0A6E030E1BEC08F0010E0D6EBB
:100F1000080E0E6E4EEC0AF0030E0001B26F8A0E40
:100F2000B16F550EE82EFED7B12FFCD7B22FFAD7EE
:100F300000D00001644B652B3C0E64196511D8A4E8
:100F4000A4EF07F0A6EF07F0ACEF07F0000E656F17
:100F5000000E646F624B632B3C0E62196311D8A4C0
:100F6000B4EF07F0B6EF07F0BCEF07F0000E636FC9
:100F7000000E626F604B612B3C0E60196111D8A4AA
:100F8000C4EF07F0C6EF07F0CAEF07F0000E616F7D
:100F9000000E606F8C0EA16F000EA26F060EA36F85
:100FA000080EA46F64C0A5F065C0A6F014EC0BF0A9
:100FB000890E0001A16F000EA26F060EA36F080E2E
:100FC000A46F62C0A5F063C0A6F014EC0BF0860E0F
:100FD0000001A16F000EA26F060EA36F080EA46F92
:100FE00060C0A5F061C0A6F014EC0BF0030E0A6E11
:100FF000050E1BEC08F0860E0D6E000E0E6E4EEC0C
:101000000AF0030E0A6E080E1BEC08F0890E0D6E36
:10101000000E0E6E4EEC0AF0030E0A6E0B0E1BEC69
:1010200008F08C0E0D6E000E0E6E4EEC0AF08CEF7A
:1010300007F045EF00F0106E0A04D8A422EF08F084
:1010400024EF08F03EEF08F01050800F0E6E1050A5
:101050000B6E0C6A800E0B26000E0C22040E0D6E19
:101060000C340C320B320D2E30EF08F00B500F6E9B
:101070000F5066EC0CF00E5066EC0CF0020E0A18E5
:10108000D8A445EF08F047EF08F061EF08F01050E2
:10109000C00F0E6E10500B6E0C6AC00E0B26000EA9
:1010A0000C22040E0D6E0C340C320B320D2E53EF4D
:1010B00008F00B500F6E0F5066EC0CF00E5066EC03
:1010C0000CF0030E0A18D8A468EF08F06AEF08F0D5
:1010D00084EF08F01050940F0E6E10500B6E0C6AD7
:1010E000940E0B26000E0C22040E0D6E0C340C32E6
:1010F0000B320D2E76EF08F00B500F6E0F5066EC92
:101100000CF00E5066EC0CF0040E0A18D8A48BEF0D
:1011100008F08DEF08F0A7EF08F01050D40F0E6E16
:1011200010500B6E0C6AD40E0B26000E0C22040E0F
:101130000D6E0C340C320B320D2E99EF08F00B5063
:101140000F6E0F5066EC0CF00E5066EC0CF01200B7
:1011500020EE18F0070EDE6AE806FDE210501110CE
:10116000121013101410151016101710D8B4BBEF6E
:1011700008F0BDEF08F00FEF09F0010E206ECBEF85
:1011800008F0D8901036113612361336143615364C
:1011900016361736202A17AED0EF08F0D2EF08F037
:1011A000C1EF08F0D890183619361A361B361C369F
:1011B0001D361E361F361050085C1150095812504B
:1011C0000A5813500B5814500C5815500D581650FF
:1011D0000E5817500F58D8A0F0EF08F0F2EF08F0B3
:1011E00003EF09F01050085E1150095A12500A5AC4
:1011F00013500B5A14500C5A15500D5A16500E5AC3
:1012000017500F5A1880D8901732163215321432F0
:101210001332123211321032202ED2EF08F018C0E1
:1012200008F019C009F01AC00AF01BC00BF01CC06E
:101230000CF01DC00DF01EC00EF01FC00FF012000C
:101240001050111012101310141015101610171042
:10125000D8B42DEF09F02FEF09F077EF09F0010E68
:10126000186E3DEF09F0D89010361136123613364D
:101270001436153616361736182A17AE42EF09F00F
:1012800044EF09F033EF09F01050085C1150095891
:1012900012500A5813500B5814500C5815500D5832
:1012A00016500E5817500F58D8A059EF09F05BEFA1
:1012B00009F06BEF09F01050085E1150095A1250F6
:1012C0000A5A13500B5A14500C5A15500D5A1650F6
:1012D0000E5A17500F5AD890173216321532143250
:1012E0001332123211321032182E44EF09F008C0B6
:1012F00008F009C009F00AC00AF00BC00BF00CC0DE
:101300000CF00DC00DF00EC00EF00FC00FF012006B
:101310000A500B10D8B48FEF09F091EF09F09AEF53
:1013200009F00A500B10D8A498EF09F09AEF09F0D1
:101330009FEF09F00850A6EC0CF0ECEF09F020EE5E
:1013400004F00A50D9260B50DA22DE50DE10D8B451
:10135000ACEF09F0AEEF09F0C9EF09F020EE04F0B0
:101360000A50D9260B50DA2210EE02F00A50E1267C
:101370000B50E222DE50E65CE650800A106EDE5032
:10138000800A1058D8B0C7EF09F0C9EF09F0ECEFA8
:1013900009F020EE02F00A50D9260B50DA22DECFF7
:1013A0000CF0DDCF0DF00AC0D9FF0BC0DAFFDECFA5
:1013B0000EF0DDCF0FF00C500E24D96E0D500F2023
:1013C000DA6E08C0DFFF20EE02F00A50D9260B507B
:1013D000DA22DE2A000EDD22120055A0F2EF09F01B
:1013E000F4EF09F0FEEF09F01AC011F01BC012F083
:1013F00018C013F019C014F08BEC0BF01DBE03EFF6
:101400000AF005EF0AF00BEF0AF01CC021F01DC036
:1014100022F00FEF0AF0000E226E000E216E000E79
:10142000206E000E1F6E21EF0AF0000E096E200ED6
:10143000086E18C00AF019C00BF088EC09F01F4ABA
:10144000202A21501F5C2050800A1E6E2250800AE4
:101450001E58D8A02EEF0AF030EF0AF015EF0AF070
:1014600055B035EF0AF037EF0AF041EF0AF01AC035
:1014700011F01BC012F018C013F019C014F08BEC5F
:101480000BF01AC008F01BC009F0E6EC0BF021507D
:101490000824186E22500920196E1200000E126ED8
:1014A000000E116E6EEF0AF011500D240F6E1250E7
:1014B0000E20106E0FC0F6FF10C0F7FFF86A070E7F
:1014C000F76403D00800F55005D0F6CFE1FFF7CF61
:1014D000E2FFE75057EC0CF0114A122A11500D248C
:1014E0000F6E12500E20106E0FC0F6FF10C0F7FFE7
:1014F000F86A070EF76403D00800F55005D0F6CF60
:10150000E1FFF7CFE2FFE7500009D8A48AEF0AF025
:101510008CEF0AF054EF0AF012009DC04DF09EC00F
:101520004EF0000E506E000E4F6EA9EF0AF09BC0F9
:1015300043F09CC044F04D0E456E000E466E9FC0B9
:1015400047F0A0C048F006EC04F043504F2644504A
:1015500050224DC0F6FF4EC0F7FF0800F5500009BD
:10156000D8A4B5EF0AF0B7EF0AF097EF0AF04FC032
:101570009BF050C09CF01200086E08A0C2EF0AF069
:10158000C4EF0AF0C7EF0AF08388C8EF0AF0839827
:1015900008A2CDEF0AF0CFEF0AF0D2EF0AF0838A6B
:1015A000D3EF0AF0839A08A4D8EF0AF0DAEF0AF032
:1015B000DDEF0AF0838CDEEF0AF0839C08A6E3EFF0
:1015C0000AF0E5EF0AF0E8EF0AF0838EE9EF0AF09F
:1015D000839E1200000E8D6E000E8C6E000E896EC2
:1015E000000E8A6E000E8B6E020E966E000E926ECC
:1015F0009368C70E946E000E956E000E0F015E6F1D
:10160000C40E5D6F2E0E5C6F000E5F6F000E5B6F81
:10161000000E856EF18E86884E0E086E190E096ECC
:1016200090EC0CF0F2861200A50E0001A96F000EDE
:10163000AA6FA1C0ABF0A2C0ACF0000EAE6F000E5E
:10164000AD6F000EB06F000EAF6FAB0E9B6F000E54
:101650009C6FA3C09DF0A4C09EF0A90E9F6F000ECA
:10166000A06F8DEC0AF00001AD51A125D96EAE51ED
:10167000A221DA6E000EDF6E1200010E0E6E200E39
:1016800008180910D8B447EF0BF049EF0BF062EFE0
:101690000BF0F70E0A6EFF0E0B6E08C00CF009C0BF
:1016A0000DF00A500C260B500D220D5009E1050ECD
:1016B0000C5CD8A05EEF0BF060EF0BF062EF0BF06C
:1016C000000E0E6E0EC008F0096A1200030E66ECE2
:1016D0000CF0030E66EC0CF0030E66EC0CF0020E40
:1016E00066EC0CF0020E66EC0CF0080E66EC0CF0EA
:1016F000000E66EC0CF0080E66EC0CF0000E66ECCA
:101700000CF0010E66EC0CF0000E66EC0CF00D0E09
:1017100066EC0CF01200000E176E000E166E9CEFB9
:101720000BF015C008F0096A13C00AF014C00BF0E2
:1017300088EC09F0164A172A16501124D96E175052
:101740001220DA6EDF50156E1550D8A4AAEF0BF0F8
:10175000ACEF0BF091EF0BF01200FACF01F0FBCFE2
:1017600002F0F2A8B6EF0BF0B8EF0BF0C4EF0BF0FD
:10177000F2A2BDEF0BF0BFEF0BF0C4EF0BF00001D6
:10178000604B612B9FEC0CF002C0FBFF01C0FAFF25
:1017900057921100D00E0A6EFF0E0B6E08C00CF0AF
:1017A00009C00DF00A500C260B500D220D500AE115
:1017B0000A0E0C5CD8A0DFEF0BF0E2EF0BF0010E8D
:1017C000E3EF0BF0000E086E096A120008C00AF081
:1017D00009C00BF0EEEF0BF0084A092A08C0D9FF48
:1017E00009C0DAFFDF50D8A4F8EF0BF0FAEF0BF0E6
:1017F000ECEF0BF00A50085C086E0B500958096EAC
:1018000012000001B551B611D8B409EF0CF00BEF7E
:101810000CF018EF0CF002D818EF0CF00500FA6E7F
:10182000B551FD6EB651FE6EF850FF6EFA501200C3
:1018300012000001B351B411D8B421EF0CF023EF22
:101840000CF030EF0CF002D830EF0CF00500FA6E1F
:10185000B351FD6EB451FE6EF850FF6EFA50120097
:10186000120000EE60F02F0EEE6AE806FDE100EED9
:101870004FF0080EEE6AE806FDE157905792000E11
:10188000F86E000173EF07F008500A02F3CF0CF076
:10189000F4CF0DF008500B02F3500D2609500A0248
:1018A000F3500D260CC008F00DC009F012000C6EAC
:1018B0000C380F0B0A6E0CC00BF084800A5066ECDB
:1018C0000CF00B5066EC0CF084901200096E8494BE
:1018D00084840950BCEC0AF0A60EE82EFED700D096
:1018E0008494120086A877EF0CF079EF0CF07BEF70
:1018F0000CF001EC0CF0F2901200F292F19C500E00
:10190000086E190E096E9AEC0CF0F2881200A3EC26
:101910000CF0EAEC0AF095EC0CF07DEC0CF0120007
:1019200008C0B5F009C0B6F01200400ED36E000E2C
:10193000D26E120008C0B3F009C0B4F01200F292E7
:1019400019EC0CF01200D08EF1901200120012006F
:02195000120083
:020000040020DA
:08000000FFFFFFFFFFFFFFFF00
:020000040030CA
:0E00000000285F3CFFD385FF0FC00FE00F40CC
:00000001FF
