:020000040000FA
:0400000066EF00F0B7
:06000800568222EF0AF00F
:100018005680D8CF04F0E8CF05F0E0CF06F0FACF4D
:1000280007F0FBCF08F0F0A61CEF00F01EEF00F081
:100038003AEF00F0F0A023EF00F025EF00F03AEFE0
:1000480000F0F7EC0CF00001624B632B3D0E6219D7
:100058006311D8A432EF00F034EF00F05AEF00F04B
:10006800000E636F000E626F5AEF00F0F0A83FEFCA
:1000780000F041EF00F05AEF00F0F0A246EF00F078
:1000880048EF00F05AEF00F0F3EC0CF000016207C3
:10009800D8A06307622906E16329D8A456EF00F0C7
:1000A80058EF00F05AEF00F034EF00F008C0FBFF03
:1000B80007C0FAFF06C0E0FF05C0E8FF04C0D8FF8C
:0800C8005690100074EF0CF0DB
:100800000066756E63696F6E616E646F00253032CD
:0508100075003A000034
:1008160046C0D9FF47C0DAFFDECFF6FFDDCFF7FFD0
:100826000800F550250AD8A41BEF04F01DEF04F0CC
:1008360094EF05F046C0D9FF47C0DAFFDE2A000E66
:10084600DD22000E4F6E000E4E6E4EC052F04FC0AF
:1008560053F050685168000E00019D6F000E9C6FAA
:100866007BEF04F0528046C0D9FF47C0DAFFDE2A8C
:10087600000EDD227BEF04F0528236EF04F0528444
:1008860036EF04F0528636EF04F0528836EF04F065
:10089600000E9D6F010E9C6F7BEF04F046C0D9FFE2
:1008A60047C0DAFFDECFF6FFDDCFF7FF0800F550D1
:1008B6004A6E4B6A4B50000AD8B464EF04F04BEF13
:1008C60004F04A50200AD8B445EF04F0030AD8B41D
:1008D60048EF04F0080AD8B442EF04F0060AD8B488
:1008E60035EF04F01D0AD8B43FEF04F04BEF04F0E7
:1008F6009C519D11D8B482EF04F084EF04F051EFBF
:1009060004F052A089EF04F08BEF04F08CEF04F0B2
:10091600529246C0D9FF47C0DAFFDECFF6FFDDCFE1
:10092600F7FF0800F5502A0AD8A49CEF04F09EEFC2
:1009360004F0C7EF04F046C0D9FF47C0DAFFDE2A4D
:10094600000EDD2248C0D9FF49C0DAFFDFCF4AF0EA
:10095600020EDE26DFCF4BF0000EDD224AC0D9FFA5
:100966004BC0DAFFDECF4EF0DDCF4FF04FBEC0EF0B
:1009760004F0BEEF04F00BEF05F052804E6C4F1EF4
:10098600D8B04F2A0BEF05F046C0D9FF47C0DAFFB3
:10099600DECF10F0DDCF11F0B0EC06F010C04EF057
:1009A60011C04FF0DEEF04F046C0D9FF47C0DAFFB2
:1009B600DE2A000EDD22D00E4A6EFF0E4B6E46C0BA
:1009C600D9FF47C0DAFFDECFF6FFDDCFF7FF08001D
:1009D600F5504C6E4D6A4A504C264B504D224D50A8
:1009E6000AE10A0E4C5CD8A0FBEF04F0FEEF04F01F
:1009F600010EFFEF04F0000E00019E6F9F6B9E51EB
:100A06009F11D8A409EF05F00BEF05F0D7EF04F01E
:100A160046C0D9FF47C0DAFFDECFF6FFDDCFF7FFCE
:100A26000800F550750AD8A41BEF05F01DEF05F078
:100A36005EEF05F046C0D9FF47C0DAFFDE2A000E9A
:100A4600DD2248C0D9FF49C0DAFFDFCF4AF0020EE7
:100A5600DE26DFCF4BF0000EDD224AC0D9FF4BC0A9
:100A6600DAFFDECF4CF0DDCF4DF04CC094F04DC038
:100A760095F0966B976B986B996B9A6B9B6B44C0D2
:100A860024F045C025F094C026F095C027F096C006
:100A960028F097C029F098C02AF099C02BF09AC088
:100AA6002CF09BC02DF0B0EC05F024C044F025C01E
:100AB60045F0AFEF05F046C0D9FF47C0DAFFDECFFD
:100AC600F6FFDDCFF7FF0800F550250AD8A46EEF34
:100AD60005F070EF05F087EF05F046C0D9FF47C077
:100AE600DAFFDE2A000EDD22000E0A6E250E096EE2
:100AF60044C00BF045C00CF05CEC09F0000E456EEE
:100B0600010E446EAFEF05F046C0D9FF47C0DAFFCD
:100B1600DE2A000EDD22000E456E000E446EAFEF9B
:100B260005F046C0D9FF47C0DAFFDECFF6FFDDCFBE
:100B3600F7FF0800F550096E0A6A44C00BF045C07D
:100B46000CF05CEC09F046C0D9FF47C0DAFFDE2A9C
:100B5600000EDD2281EF05F0120051BEB5EF05F063
:100B6600B7EF05F0B8EF05F0529251BEC5EF05F0AC
:100B7600515006E15004D8B0C3EF05F0C5EF05F0BB
:100B8600CBEF05F0000E376E010E366ECFEF05F097
:100B960050C036F051C037F04EC038F04FC039F073
:100BA60026C03AF027C03BF028C03CF029C03DF0F3
:100BB6002AC03EF02BC03FF02CC040F02DC041F0C3
:100BC600000E436E1F0E426E000E0001876F62EF2D
:100BD60006F04206D8A04306680E4224D96E000EDF
:100BE6004320DA6E3AC009F03BC00AF03CC00BF075
:100BF6003DC00CF03EC00DF03FC00EF040C00FF0FF
:100C060041C010F00A0E116E000E126E000E136E29
:100C1600000E146E000E156E000E166E000E176E88
:100C2600000E186EF4EC08F009C02EF00AC02FF082
:100C36000BC030F00CC031F00DC032F00EC033F0F6
:100C46000FC034F010C035F02E50300FDF6E360670
:100C5600D8A037063806D8A039063AC009F03BC0F6
:100C66000AF03CC00BF03DC00CF03EC00DF03FC09A
:100C76000EF040C00FF041C010F00A0E116E000ECB
:100C8600126E000E136E000E146E000E156E000E20
:100C9600166E000E176E000E186E05EC08F009C0F1
:100CA6003AF00AC03BF00BC03CF00CC03DF00DC062
:100CB6003EF00EC03FF00FC040F010C041F0425071
:100CC6004310D8B469EF06F06BEF06F09BEF06F021
:100CD6003A503B103C103D103E103F104010411062
:100CE600D8A478EF06F07AEF06F0ECEF05F037BE01
:100CF60087EF06F0375006E13604D8B085EF06F0E8
:100D060087EF06F0ECEF05F039BE92EF06F03950AA
:100D160008E13804D8A092EF06F094EF06F09BEFB6
:100D260006F052B299EF06F09BEF06F0ECEF05F0F5
:100D360024C019F025C01AF0680E42241B6E000E5E
:100D460043201C6E38C01DF039C01EF0C1EC09F0FE
:100D560019C024F01AC025F01200000E1E6E000EF7
:100D66001D6E000E176E000E166EBCEF06F0104AD2
:100D7600112A010E1C6E10C0F6FF11C0F7FF080005
:100D8600F550200AD8B4CAEF06F0CCEF06F0E9EF2A
:100D960006F0F70E126EFF0E136E10C0F6FF11C0AE
:100DA600F7FF0800F550146E156A125014261350FA
:100DB6001522155009E1050E145CD8A0E5EF06F0E2
:100DC600E7EF06F0E9EF06F0000E1C6E1CC018F007
:100DD600196A18501910D8A4F3EF06F0F5EF06F0CB
:100DE600BAEF06F0FFEF06F0000E176E010E166E54
:100DF600104A112A34EF07F010C0F6FF11C0F7FFB2
:100E06000800F550126E136A1350000AD8B40EEF9C
:100E160007F034EF07F012502B0AD8B4FBEF06F0B8
:100E2600060AD8B4F7EF06F034EF07F01DC009F054
:100E36001EC00AF0000E0C6E0A0E0B6E87EC0CF04C
:100E460010C0F6FF11C0F7FF0800F550095E000E4E
:100E56000A5A300E09241D6E000E0A201E6EFBEF84
:100E660006F0D00E126EFF0E136E10C0F6FF11C004
:100E7600F7FF0800F550146E156A12501426135029
:100E8600152215500AE10A0E145CD8A04DEF07F0A2
:100E960050EF07F0010E51EF07F0000E1A6E1B6AB5
:100EA6001A501B10D8A45AEF07F05CEF07F019EFA1
:100EB60007F016501710D8A463EF07F065EF07F098
:100EC60073EF07F01DC012F01EC013F0121E131EA2
:100ED600124A132A12C010F013C011F077EF07F070
:100EE6001DC010F01EC011F01200116E0B04D8A424
:100EF6007FEF07F081EF07F09BEF07F01150800FAF
:100F06000F6E11500C6E0D6A800E0C26000E0D220F
:100F1600040E0E6E0D340D320C320E2E8DEF07F0D0
:100F26000C50106E1050BCEC0CF00F50BCEC0CF0DA
:100F3600020E0B18D8A4A2EF07F0A4EF07F0BEEF3D
:100F460007F01150C00F0F6E11500C6E0D6AC00ED7
:100F56000C26000E0D22040E0E6E0D340D320C32D0
:100F66000E2EB0EF07F00C50106E1050BCEC0CF0CB
:100F76000F50BCEC0CF0030E0B18D8A4C5EF07F00D
:100F8600C7EF07F0E1EF07F01150940F0F6E115005
:100F96000C6E0D6A940E0C26000E0D22040E0E6EBB
:100FA6000D340D320C320E2ED3EF07F00C50106EAE
:100FB6001050BCEC0CF00F50BCEC0CF0040E0B18EF
:100FC600D8A4E8EF07F0EAEF07F004EF08F01150B5
:100FD600D40F0F6E11500C6E0D6AD40E0C26000E37
:100FE6000D22040E0E6E0D340D320C320E2EF6EF5F
:100FF60007F00C50106E1050BCEC0CF00F50BCEC0F
:101006000CF0120020EE19F0070EDE6AE806FDE28B
:101016001150121013101410151016101710181066
:10102600D8B418EF08F01AEF08F06CEF08F0010ECC
:10103600216E28EF08F0D890113612361336143682
:101046001536163617361836212A18AE2DEF08F043
:101056002FEF08F01EEF08F0D89019361A361B3617
:101066001C361D361E361F3620361150095C1250AE
:101076000A5813500B5814500C5815500D5816504A
:101086000E5817500F5818501058D8A04DEF08F0AA
:101096004FEF08F060EF08F01150095E12500A5A3F
:1010A60013500B5A14500C5A15500D5A16500E5A0E
:1010B60017500F5A1850105A1980D89018321732F4
:1010C600163215321432133212321132212E2FEF0C
:1010D60008F019C009F01AC00AF01BC00BF01CC0BA
:1010E6000CF01DC00DF01EC00EF01FC00FF020C08A
:1010F60010F01200C8EC0CF0F28EF28CF28C6DEC53
:101106000BF0D3EC0CF0010E0E6E080E0F6E7DEC9C
:101116000AF0900E0001A86F000EA96F0D0EAA6FBF
:10112600080EAB6F66C0ACF067C0ADF01BEC0BF001
:101136008C0E0001A86F000EA96F0D0EAA6F080E87
:10114600AB6F64C0ACF065C0ADF01BEC0BF0880E65
:101156000001A86F000EA96F0D0EAA6F080EAB6FE7
:1011660062C0ACF063C0ADF01BEC0BF0020E0B6E70
:10117600070E78EC07F0880E0E6E000E0F6E7DECF3
:101186000AF0020E0B6E0A0E78EC07F08C0E0E6E4D
:10119600000E0F6E7DEC0AF0020E0B6E0D0E78EC53
:1011A60007F0900E0E6E000E0F6E7DEC0AF0020E2A
:1011B6000B6E090E78EC07F0120E0E6E080E0F6E0F
:1011C6007DEC0AF0020E0B6E0C0E78EC07F0120E98
:1011D6000E6E080E0F6E7DEC0AF08CEF08F066EFCF
:1011E60000F01150121013101410151016101710CD
:1011F6001810D8B401EF09F003EF09F04BEF09F02E
:10120600010E196E11EF09F0D89011361236133609
:1012160014361536163617361836192A18AE16EF3E
:1012260009F018EF09F007EF09F01150095C1250A8
:101236000A5813500B5814500C5815500D58165088
:101246000E5817500F5818501058D8A02DEF09F007
:101256002FEF09F03FEF09F01150095E12500A5ABC
:1012660013500B5A14500C5A15500D5A16500E5A4C
:1012760017500F5A1850105AD89018321732163283
:1012860015321432133212321132192E18EF09F0B8
:1012960009C009F00AC00AF00BC00BF00CC00CF034
:1012A6000DC00DF00EC00EF00FC00FF010C010F004
:1012B60012000B500C10D8B463EF09F065EF09F07B
:1012C6006EEF09F00B500C10D8A46CEF09F06EEF1E
:1012D60009F073EF09F00950FBEC0CF0C0EF09F0D0
:1012E60020EE04F00B50D9260C50DA22DE50DE1028
:1012F600D8B480EF09F082EF09F09DEF09F020EEF7
:1013060004F00B50D9260C50DA2210EE02F00B50E6
:10131600E1260C50E222DE50E65CE650800A116EB1
:10132600DE50800A1158D8B09BEF09F09DEF09F006
:10133600C0EF09F020EE02F00B50D9260C50DA224D
:10134600DECF0DF0DDCF0EF00BC0D9FF0CC0DAFFFB
:10135600DECF0FF0DDCF10F00D500F24D96E0E50FA
:101366001020DA6E09C0DFFF20EE02F00B50D926FE
:101376000C50DA22DE2A000EDD22120052A0C6EF41
:1013860009F0C8EF09F0D2EF09F01BC012F01CC03B
:1013960013F019C014F01AC015F092EC0BF01EBE33
:1013A600D7EF09F0D9EF09F0DFEF09F01DC022F001
:1013B6001EC023F0E3EF09F0000E236E000E226E2E
:1013C600000E216E000E206EF5EF09F0000E0A6E7B
:1013D600200E096E19C00BF01AC00CF05CEC09F077
:1013E600204A212A2250205C2150800A1F6E235059
:1013F600800A1F58D8A002EF0AF004EF0AF0E9EFBE
:1014060009F052B009EF0AF00BEF0AF015EF0AF0F7
:101416001BC012F01CC013F019C014F01AC015F04E
:1014260092EC0BF01BC009F01CC00AF00EEC0CF09D
:1014360022500924196E23500A201A6E1200FACF80
:1014460002F0FBCF03F0F2AA2BEF0AF02DEF0AF021
:1014560077EF0AF0F2A432EF0AF034EF0AF077EFF2
:101466000AF0D5EC0BF00001664B672B3C0E6619B3
:101476006711D8A441EF0AF043EF0AF049EF0AF0EA
:10148600000E676F000E666F644B652B3C0E641989
:101496006511D8A451EF0AF053EF0AF059EF0AF09C
:1014A600000E656F000E646F624B632B180E621997
:1014B6006311D8A461EF0AF063EF0AF067EF0AF050
:1014C600000E636F000E626F83B06CEF0AF06FEF71
:1014D6000AF0010E70EF0AF0000EFF0A016E83504B
:1014E6000118FE0B0118836E03C0FBFF02C0FAFF52
:1014F60056921100000E136E000E126E9DEF0AF04A
:1015060012500E24106E13500F20116E10C0F6FFED
:1015160011C0F7FFF86A070EF76403D00800F5500C
:1015260005D0F6CFE1FFF7CFE2FFE750ADEC0CF0C8
:10153600124A132A12500E24106E13500F20116EE9
:1015460010C0F6FF11C0F7FFF86A070EF76403D064
:101556000800F55005D0F6CFE1FFF7CFE2FFE750E0
:101566000009D8A4B9EF0AF0BBEF0AF083EF0AF03E
:101576001200A2C0A6F0A3C0A7F0000E0001616F82
:10158600000E606FDAEF0AF0A0C044F0A1C045F08B
:10159600A60E466E000E476EA4C048F0A5C049F0E0
:1015A6000BEC04F044500001602745506123A6C0AF
:1015B600F6FFA7C0F7FF0800F5500009D8A4E6EF2C
:1015C6000AF0E8EF0AF0C7EF0AF060C0A0F061C0C9
:1015D600A1F01200096E09A0F3EF0AF0F5EF0AF088
:1015E600F8EF0AF08388F9EF0AF0839809A2FEEF74
:1015F6000AF000EF0BF003EF0BF0838A04EF0BF019
:10160600839A09A409EF0BF00BEF0BF00EEF0BF02A
:10161600838C0FEF0BF0839C09A614EF0BF016EFEB
:101626000BF019EF0BF0838E1AEF0BF0839E12006E
:10163600AC0E0001B06F000EB16FA8C0B2F0A9C029
:10164600B3F0000EB56F000EB46F000EB76F000E4C
:10165600B66FB20EA06F000EA16FAAC0A2F0ABC00B
:10166600A3F0B00EA46F000EA56FBCEC0AF000014B
:10167600B451A825D96EB551A921DA6E000EDF6ED8
:101686001200010E0F6E200E09180A10D8B44EEF84
:101696000BF050EF0BF069EF0BF0F70E0B6EFF0E31
:1016A6000C6E09C00DF00AC00EF00B500D260C5042
:1016B6000E220E5009E1050E0D5CD8A065EF0BF069
:1016C60067EF0BF069EF0BF0000E0F6E0FC009F01D
:1016D6000A6A1200030EBCEC0CF0030EBCEC0CF014
:1016E600030EBCEC0CF0020EBCEC0CF0020EBCECD3
:1016F6000CF0080EBCEC0CF0000EBCEC0CF0080E66
:10170600BCEC0CF0000EBCEC0CF0010EBCEC0CF0CA
:10171600000EBCEC0CF00D0EBCEC0CF01200000E32
:10172600186E000E176EA3EF0BF016C009F00A6ACA
:1017360014C00BF015C00CF05CEC09F0174A182A1F
:1017460017501224D96E18501320DA6EDF50166E19
:101756001650D8A4B1EF0BF0B3EF0BF098EF0BF0E7
:101766001200000E8D6E000E8C6E000E896E000E3D
:101776008A6E000E8B6E020E966E92689368C70E86
:10178600946E0E0E956E0E0E0F015E6FC40E5D6F9B
:10179600390E5C6F020E5F6F2F0E5B6F000E856E4B
:1017A600F18E1200F2945550D76E54C0D6FF000148
:1017B600B851B911D8B4E2EF0BF0E4EF0BF0F1EF4A
:1017C6000BF002D8F1EF0BF00500FA6EB851FD6E82
:1017D600B951FE6EF850FF6EFA5012001200D00E8C
:1017E6000B6EFF0E0C6E09C00DF00AC00EF00B500A
:1017F6000D260C500E220E500AE10A0E0D5CD8A0E2
:1018060007EF0CF00AEF0CF0010E0BEF0CF0000ED8
:10181600096E0A6A120009C00BF00AC00CF016EF36
:101826000CF0094A0A2A09C0D9FF0AC0DAFFDF50BC
:10183600D8A420EF0CF022EF0CF014EF0CF00B50B4
:10184600095C096E0C500A580A6E1200D59C0B0EE4
:10185600D76EDB0ED66ED650D7CF0BF00C6A0BC008
:101866000CF00B6A0B10546E0C50556EF294F28A03
:10187600FC0E096E190E0A6EDAEC0CF0920ED56E9D
:1018860012000001BA51BB11D8B44CEF0CF04EEF68
:101896000CF05BEF0CF002D85BEF0CF00500FA6E73
:1018A600BA51FD6EBB51FE6EF850FF6EFA50120033
:1018B60012000001BC51BD11D8B464EF0CF066EF04
:1018C6000CF073EF0CF002D873EF0CF00500FA6E13
:1018D600BC51FD6EBD51FE6EF850FF6EFA501200FF
:1018E600120000EE60F0340EEE6AE806FDE1536A7F
:1018F600526A516A506A4F6A4E6A56905692000E64
:10190600F86E00017DEF08F009500B02F3CF0DF0E1
:10191600F4CF0EF009500C02F3500E260A500B02BB
:10192600F3500E260DC009F00EC00AF01200F0901A
:10193600F19AFA0E096E190E0A6EEEEC0CF0F086AC
:10194600F092F198F80E096E190E0A6EE9EC0CF099
:10195600F08812000D6E0D380F0B0B6E0DC00CF0DB
:1019660084800B50BCEC0CF00C50BCEC0CF084905A
:1019760012000A6E849484840A50EDEC0AF0A60ED6
:10198600E82EFED700D084941200E4EC0CF0B4EC00
:101996000BF0DFEC0CF09AEC0CF029EC0CF01200DA
:1019A600000EBCEC0CF00C0EBCEC0CF0120009C0E6
:1019B600B8F00AC0B9F01200400ED36E000ED26E17
:1019C6001200D08EF184F09CF09E120009C0BAF08D
:1019D6000AC0BBF0120009C0BCF00AC0BDF012007C
:1019E600F09244EC0CF01200F0905CEC0CF012005B
:0819F6001200120012001200A1
:020000040020DA
:08000000FFFFFFFFFFFFFFFF00
:020000040030CA
:0E00000000285F3CFFD385FF0FC00FE00F40CC
:00000001FF
