:020000040000FA
:0400000066EF00F0B7
:060008005682E4EF0AF04D
:100018005680D8CF04F0E8CF05F0E0CF06F0FACF4D
:1000280007F0FBCF08F0F0A61CEF00F01EEF00F081
:100038003AEF00F0F0A023EF00F025EF00F03AEFE0
:1000480000F03FEC0EF000016E4B6F2B3D0E6E1969
:100058006F11D8A432EF00F034EF00F05AEF00F03F
:10006800000E6F6F000E6E6F5AEF00F0F0A83FEFB2
:1000780000F041EF00F05AEF00F0F0A246EF00F078
:1000880048EF00F05AEF00F03BEC0EF000016E076D
:10009800D8A06F076E2906E16F29D8A456EF00F0A3
:1000A80058EF00F05AEF00F034EF00F008C0FBFF03
:1000B80007C0FAFF06C0E0FF05C0E8FF04C0D8FF8C
:0800C80056901000AEEF0DF0A0
:10080000004C4120484F52412045533A0025303298
:1008100075000A0D000046C0D9FF47C0DAFFDECFE1
:10082000F6FFDDCFF7FF0800F550250AD8A41BEF2F
:1008300004F01DEF04F094EF05F046C0D9FF47C067
:10084000DAFFDE2A000EDD22000E4F6E000E4E6E25
:100850004EC052F04FC053F050685168000E000176
:10086000A96F000EA86F7BEF04F0528046C0D9FF3D
:1008700047C0DAFFDE2A000EDD227BEF04F0528251
:1008800036EF04F0528436EF04F0528636EF04F06F
:10089000528836EF04F0000EA96F010EA86F7BEFAF
:1008A00004F046C0D9FF47C0DAFFDECFF6FFDDCF48
:1008B000F7FF0800F5504A6E4B6A4B50000AD8B457
:1008C00064EF04F04BEF04F04A50200AD8B445EF2F
:1008D00004F0030AD8B448EF04F0080AD8B442EF91
:1008E00004F0060AD8B435EF04F01D0AD8B43FEF7F
:1008F00004F04BEF04F0A851A911D8B482EF04F032
:1009000084EF04F051EF04F052A089EF04F08BEF74
:1009100004F08CEF04F0529246C0D9FF47C0DAFFD2
:10092000DECFF6FFDDCFF7FF0800F5502A0AD8A486
:100930009CEF04F09EEF04F0C7EF04F046C0D9FF2F
:1009400047C0DAFFDE2A000EDD2248C0D9FF49C0C9
:10095000DAFFDFCF4AF0020EDE26DFCF4BF0000ECB
:10096000DD224AC0D9FF4BC0DAFFDECF4EF0DDCF2B
:100970004FF04FBEC0EF04F0BEEF04F00BEF05F0F8
:1009800052804E6C4F1ED8B04F2A0BEF05F046C078
:10099000D9FF47C0DAFFDECF10F0DDCF11F0B0ECA9
:1009A00006F010C04EF011C04FF0DEEF04F046C06C
:1009B000D9FF47C0DAFFDE2A000EDD22D00E4A6ED4
:1009C000FF0E4B6E46C0D9FF47C0DAFFDECFF6FF01
:1009D000DDCFF7FF0800F5504C6E4D6A4A504C26AB
:1009E0004B504D224D500AE10A0E4C5CD8A0FBEF53
:1009F00004F0FEEF04F0010EFFEF04F0000E000122
:100A0000AA6FAB6BAA51AB11D8A409EF05F00BEF9D
:100A100005F0D7EF04F046C0D9FF47C0DAFFDECFBC
:100A2000F6FFDDCFF7FF0800F550750AD8A41BEFDD
:100A300005F01DEF05F05EEF05F046C0D9FF47C099
:100A4000DAFFDE2A000EDD2248C0D9FF49C0DAFFF6
:100A5000DFCF4AF0020EDE26DFCF4BF0000EDD22A4
:100A60004AC0D9FF4BC0DAFFDECF4CF0DDCF4DF0EE
:100A70004CC0A0F04DC0A1F0A26BA36BA46BA56B02
:100A8000A66BA76B44C024F045C025F0A0C026F09B
:100A9000A1C027F0A2C028F0A3C029F0A4C02AF06A
:100AA000A5C02BF0A6C02CF0A7C02DF0B0EC05F02F
:100AB00024C044F025C045F0AFEF05F046C0D9FF93
:100AC00047C0DAFFDECFF6FFDDCFF7FF0800F550B5
:100AD000250AD8A46EEF05F070EF05F087EF05F05A
:100AE00046C0D9FF47C0DAFFDE2A000EDD22000E25
:100AF0000A6E250E096E44C00BF045C00CF01EECCA
:100B00000AF0000E456E010E446EAFEF05F046C0D0
:100B1000D9FF47C0DAFFDE2A000EDD22000E456E47
:100B2000000E446EAFEF05F046C0D9FF47C0DAFFB4
:100B3000DECFF6FFDDCFF7FF0800F550096E0A6A39
:100B400044C00BF045C00CF01EEC0AF046C0D9FFC3
:100B500047C0DAFFDE2A000EDD2281EF05F0120029
:100B600051BEB5EF05F0B7EF05F0B8EF05F05292C2
:100B700051BEC5EF05F0515006E15004D8B0C3EFA7
:100B800005F0C5EF05F0CBEF05F0000E376E010E56
:100B9000366ECFEF05F050C036F051C037F04EC082
:100BA00038F04FC039F026C03AF027C03BF028C0DB
:100BB0003CF029C03DF02AC03EF02BC03FF02CC0D5
:100BC00040F02DC041F0000E436E1F0E426E000E2D
:100BD0000001936F62EF06F04206D8A04306740E40
:100BE0004224D96E000E4320DA6E3AC009F03BC0B1
:100BF0000AF03CC00BF03DC00CF03EC00DF03FC011
:100C00000EF040C00FF041C010F00A0E116E000E41
:100C1000126E000E136E000E146E000E156E000E96
:100C2000166E000E176E000E186EB6EC09F009C0B5
:100C30002EF00AC02FF00BC030F00CC031F00DC008
:100C400032F00EC033F00FC034F010C035F02E502B
:100C5000300FDF6E3606D8A037063806D8A0390622
:100C60003AC009F03BC00AF03CC00BF03DC00CF0AC
:100C70003EC00DF03FC00EF040C00FF041C010F07C
:100C80000A0E116E000E126E000E136E000E146E20
:100C9000000E156E000E166E000E176E000E186E0A
:100CA0003EEC09F009C03AF00AC03BF00BC03CF042
:100CB0000CC03DF00DC03EF00EC03FF00FC040F044
:100CC00010C041F042504310D8B469EF06F06BEF0A
:100CD00006F09BEF06F03A503B103C103D103E10E2
:100CE0003F1040104110D8A478EF06F07AEF06F0DC
:100CF000ECEF05F037BE87EF06F0375006E136041B
:100D0000D8B085EF06F087EF06F0ECEF05F039BEBE
:100D100092EF06F0395008E13804D8A092EF06F0BF
:100D200094EF06F09BEF06F052B299EF06F09BEFBE
:100D300006F0ECEF05F024C019F025C01AF0740E8F
:100D400042241B6E000E43201C6E38C01DF039C0BB
:100D50001EF083EC0AF019C024F01AC025F012002E
:100D6000000E1E6E000E1D6E000E176E000E166E2B
:100D7000BCEF06F0104A112A010E1C6E10C0F6FFDF
:100D800011C0F7FF0800F550200AD8B4CAEF06F0EA
:100D9000CCEF06F0E9EF06F0F70E126EFF0E136EC1
:100DA00010C0F6FF11C0F7FF0800F550146E156A69
:100DB0001250142613501522155009E1050E145C2B
:100DC000D8A0E5EF06F0E7EF06F0E9EF06F0000E39
:100DD0001C6E1CC018F0196A18501910D8A4F3EF33
:100DE00006F0F5EF06F0BAEF06F0FFEF06F0000EA2
:100DF000176E010E166E104A112A34EF07F010C05C
:100E0000F6FF11C0F7FF0800F550126E136A135079
:100E1000000AD8B40EEF07F034EF07F012502B0A97
:100E2000D8B4FBEF06F0060AD8B4F7EF06F034EFBB
:100E300007F01DC009F01EC00AF0000E0C6E0A0E6D
:100E40000B6EC1EC0DF010C0F6FF11C0F7FF0800EB
:100E5000F550095E000E0A5A300E09241D6E000E70
:100E60000A201E6EFBEF06F0D00E126EFF0E136E00
:100E700010C0F6FF11C0F7FF0800F550146E156A98
:100E8000125014261350152215500AE10A0E145C54
:100E9000D8A04DEF07F050EF07F0010E51EF07F02B
:100EA000000E1A6E1B6A1A501B10D8A45AEF07F0D6
:100EB0005CEF07F019EF07F016501710D8A463EF96
:100EC00007F065EF07F073EF07F01DC012F01EC0CA
:100ED00013F0121E131E124A132A12C010F013C070
:100EE00011F077EF07F01DC010F01EC011F01200D6
:100EF00010EC0EF0F28EF28CF28CA7EC0CF0000EDF
:100F00000F015D6F800E176E250E186E000E196EA4
:100F1000000E1A6EBDEC0BF01BEC0EF0020E0C6E08
:100F2000050E2BEC08F0010E0F6E080E106E7EEC15
:100F30000BF09C0E0001B46F000EB56F0D0EB66F76
:100F4000080EB76F72C0B8F073C0B9F055EC0CF072
:100F5000980E0001B46F000EB56F0D0EB66F080E3F
:100F6000B76F70C0B8F071C0B9F055EC0CF0940ECA
:100F70000001B46F000EB56F0D0EB66F080EB76F9F
:100F80006EC0B8F06FC0B9F055EC0CF0030E0C6EEB
:100F9000070E2BEC08F0940E0F6E000E106E7EEC18
:100FA0000BF0030E0C6E0A0E2BEC08F0980E0F6E71
:100FB000000E106E7EEC0BF0030E0C6E0D0E2BEC83
:100FC00008F09C0E0F6E000E106E7EEC0BF0030E00
:100FD0000C6E090E2BEC08F00B0E0F6E080E106E47
:100FE0007EEC0BF0030E0C6E0C0E2BEC08F00B0ECF
:100FF0000F6E080E106E7EEC0BF0940E0A6E000E53
:101000000B6E3FEC0BF03A0E05EC0EF0980E0A6EEC
:10101000000E0B6E3FEC0BF03A0E05EC0EF09C0E42
:101020000A6E000E0B6E3FEC0BF0120E0A6E080EED
:101030000B6E3FEC0BF0050E0001C56F0F0EC46F79
:10104000F10EE82EFED7C42FFCD7C52FFAD799EFA3
:1010500007F066EF00F0126E0C04D8A432EF08F02F
:1010600034EF08F04EEF08F01250800F106E12505F
:101070000D6E0E6A800E0D26000E0E22040E0F6EEF
:101080000E340E320D320F2E40EF08F00D50116E5F
:101090001150F6EC0DF01050F6EC0DF0020E0C189D
:1010A000D8A455EF08F057EF08F071EF08F0125090
:1010B000C00F106E12500D6E0E6AC00E0D26000E7F
:1010C0000E22040E0F6E0E340E320D320F2E63EF11
:1010D00008F00D50116E1150F6EC0DF01050F6ECBA
:1010E0000DF0030E0C18D8A478EF08F07AEF08F092
:1010F00094EF08F01250940F106E12500D6E0E6A9D
:10110000940E0D26000E0E22040E0F6E0E340E32BB
:101110000D320F2E86EF08F00D50116E1150F6ECC7
:101120000DF01050F6EC0DF0040E0C18D8A49BEF47
:1011300008F09DEF08F0B7EF08F01250D40F106ED2
:1011400012500D6E0E6AD40E0D26000E0E22040EE5
:101150000F6E0E340E320D320F2EA9EF08F00D5027
:10116000116E1150F6EC0DF01050F6EC0DF012006F
:10117000000E126E10BEC1EF08F0BFEF08F0CBEF0B
:1011800008F0101E0F1E0E1E0D6C000E0E220F22F8
:101190001022010E126E0CBED2EF08F0D0EF08F054
:1011A000DCEF08F00C1E0B1E0A1E096C000E0A2252
:1011B0000B220C22010E121A000E136E000E146E7A
:1011C000000E156E000E166E0D500E100F10101042
:1011D000D8B4EDEF08F0EFEF08F025EF09F0010EBD
:1011E000116EF9EF08F0D8900D360E360F36103626
:1011F000112A10AEFEEF08F000EF09F0F3EF08F04F
:10120000D89013361436153616360D50095C0E502C
:101210000A580F500B5810500C58D8A012EF09F074
:1012200014EF09F01DEF09F00D50095E0E500A5A37
:101230000F500B5A10500C5A1380D89010320F32A6
:101240000E320D32112E00EF09F01250D8B42BEFF0
:1012500009F02DEF09F035EF09F0161E151E141ECA
:10126000136C000E14221522162213C009F014C0AC
:101270000AF015C00BF016C00CF0120020EE19F0A9
:10128000070EDE6AE806FDE211501210131014106A
:101290001510161017101810D8B451EF09F053EFAD
:1012A00009F0A5EF09F0010E216E61EF09F0D89069
:1012B00011361236133614361536163617361836DA
:1012C000212A18AE66EF09F068EF09F057EF09F030
:1012D000D89019361A361B361C361D361E361F3668
:1012E00020361150095C12500A5813500B581450F4
:1012F0000C5815500D5816500E5817500F581850BE
:101300001058D8A086EF09F088EF09F099EF09F09E
:101310001150095E12500A5A13500B5A14500C5AAD
:1013200015500D5A16500E5A17500F5A1850105A81
:101330001980D890183217321632153214321332FF
:1013400012321132212E68EF09F019C009F01AC0CB
:101350000AF01BC00BF01CC00CF01DC00DF01EC02D
:101360000EF01FC00FF020C010F01200115012102C
:10137000131014101510161017101810D8B4C3EF4E
:1013800009F0C5EF09F00DEF0AF0010E196ED3EF69
:1013900009F0D89011361236133614361536163633
:1013A00017361836192A18AED8EF09F0DAEF09F017
:1013B000C9EF09F01150095C12500A5813500B582C
:1013C00014500C5815500D5816500E5817500F58F1
:1013D00018501058D8A0EFEF09F0F1EF09F001EF25
:1013E0000AF01150095E12500A5A13500B5A145049
:1013F0000C5A15500D5A16500E5A17500F5A1850B5
:10140000105AD8901832173216321532143213325D
:1014100012321132192EDAEF09F009C009F00AC0B0
:101420000AF00BC00BF00CC00CF00DC00DF00EC09C
:101430000EF00FC00FF010C010F012000B500C1087
:10144000D8B425EF0AF027EF0AF030EF0AF00B507E
:101450000C10D8A42EEF0AF030EF0AF035EF0AF0A6
:10146000095043EC0EF082EF0AF020EE04F00B502E
:10147000D9260C50DA22DE50DE10D8B442EF0AF042
:1014800044EF0AF05FEF0AF020EE04F00B50D9268B
:101490000C50DA2210EE02F00B50E1260C50E22242
:1014A000DE50E65CE650800A116EDE50800A11586C
:1014B000D8B05DEF0AF05FEF0AF082EF0AF020EE9D
:1014C00002F00B50D9260C50DA22DECF0DF0DDCF22
:1014D0000EF00BC0D9FF0CC0DAFFDECF0FF0DDCF6E
:1014E00010F00D500F24D96E0E501020DA6E09C086
:1014F000DFFF20EE02F00B50D9260C50DA22DE2A54
:10150000000EDD22120052A088EF0AF08AEF0AF0E6
:1015100094EF0AF01BC012F01CC013F019C014F0B5
:101520001AC015F0CCEC0CF01EBE99EF0AF09BEF40
:101530000AF0A1EF0AF01DC022F01EC023F0A5EFB3
:101540000AF0000E236E000E226E000E216E000EB9
:10155000206EB7EF0AF0000E0A6E200E096E19C059
:101560000BF01AC00CF01EEC0AF0204A212A22507F
:10157000205C2150800A1F6E2350800A1F58D8A07B
:10158000C4EF0AF0C6EF0AF0ABEF0AF052B0CBEFAF
:101590000AF0CDEF0AF0D7EF0AF01BC012F01CC022
:1015A00013F019C014F01AC015F0CCEC0CF01BC0ED
:1015B00009F01CC00AF048EC0DF022500924196E05
:1015C00023500A201A6E1200FACF02F0FBCF03F06C
:1015D000F2AAEDEF0AF0EFEF0AF039EF0BF0F2A408
:1015E000F4EF0AF0F6EF0AF039EF0BF00FEC0DF024
:1015F0000001724B732B3C0E72197311D8A403EFC8
:101600000BF005EF0BF00BEF0BF0000E736F000EFD
:10161000726F704B712B3C0E70197111D8A413EFBF
:101620000BF015EF0BF01BEF0BF0000E716F000EBF
:10163000706F6E4B6F2B180E6E196F11D8A423EFBD
:101640000BF025EF0BF029EF0BF0000E6F6F000E83
:101650006E6F83B02EEF0BF031EF0BF0010E32EF17
:101660000BF0000EFF0A016E83500118FE0B0118EB
:10167000836E03C0FBFF02C0FAFF56921100000EFA
:101680000F6E000E0E6E5FEF0BF00E500A240C6E04
:101690000F500B200D6E0CC0F6FF0DC0F7FFF86A5F
:1016A000070EF76403D00800F55005D0F6CFE1FF30
:1016B000F7CFE2FFE75005EC0EF00E4A0F2A0E506E
:1016C0000A240C6E0F500B200D6E0CC0F6FF0DC0DF
:1016D000F7FFF86A070EF76403D00800F55005D04D
:1016E000F6CFE1FFF7CFE2FFE7500009D8A47BEF88
:1016F0000BF07DEF0BF045EF0BF01200000E146EB7
:10170000000E136E9EEF0BF013500F24116E145049
:101710001020126E11C0F6FF12C0F7FFF86A070E14
:10172000F76403D00800F55005D0F6CFE1FFF7CFFE
:10173000E2FFE750E7EC0DF0134A142A13500F2490
:10174000116E14501020126E11C0F6FF12C0F7FF78
:10175000F86A070EF76403D00800F55005D0F6CFFD
:10176000E1FFF7CFE2FFE7500009D8A4BAEF0BF092
:10177000BCEF0BF084EF0BF01200949C948EB896A3
:10178000AC94AC9817C00DF018C00EF019C00FF053
:101790001AC010F0000E096E120E0A6E7A0E0B6E51
:1017A000000E0C6EB8EC08F009C01BF00AC01CF06B
:1017B0000BC01DF00CC01EF01BC009F01CC00AF0CD
:1017C0001DC00BF01EC00CF0400E0D6E000E0E6E14
:1017D000000E0F6E000E106EB8EC08F00904AF6E2C
:1017E000AB8EAC9CAC8AAB9CAB881200AEC0B2F0A6
:1017F000AFC0B3F0000E00016D6F000E6C6F14EF00
:101800000CF0ACC044F0ADC045F0B20E466E000E18
:10181000476EB0C048F0B1C049F00BEC04F0445042
:1018200000016C2745506D23B2C0F6FFB3C0F7FF2F
:101830000800F5500009D8A420EF0CF022EF0CF0BE
:1018400001EF0CF06CC0ACF06DC0ADF01200096E91
:1018500009A02DEF0CF02FEF0CF032EF0CF0838885
:1018600033EF0CF0839809A238EF0CF03AEF0CF04C
:101870003DEF0CF0838A3EEF0CF0839A09A443EF0E
:101880000CF045EF0CF048EF0CF0838C49EF0CF0B6
:10189000839C09A64EEF0CF050EF0CF053EF0CF0C8
:1018A000838E54EF0CF0839E1200B80E0001BC6FC3
:1018B000000EBD6FB4C0BEF0B5C0BFF0000EC16F6A
:1018C000000EC06F000EC36F000EC26FBE0EAC6F75
:1018D000000EAD6FB6C0AEF0B7C0AFF0BC0EB06FCB
:1018E000000EB16FF6EC0BF00001C051B425D96EBB
:1018F000C151B521DA6E000EDF6E1200010E0F6EBF
:10190000200E09180A10D8B488EF0CF08AEF0CF0FA
:10191000A3EF0CF0F70E0B6EFF0E0C6E09C00DF06E
:101920000AC00EF00B500D260C500E220E5009E18D
:10193000050E0D5CD8A09FEF0CF0A1EF0CF0A3EF0B
:101940000CF0000E0F6E0FC009F00A6A1200030EB1
:10195000F6EC0DF0030EF6EC0DF0030EF6EC0DF0C8
:10196000020EF6EC0DF0020EF6EC0DF0080EF6ECA1
:101970000DF0000EF6EC0DF0080EF6EC0DF0000E7A
:10198000F6EC0DF0010EF6EC0DF0000EF6EC0DF09D
:101990000D0EF6EC0DF01200000E186E000E176E14
:1019A000DDEF0CF016C009F00A6A14C00BF015C088
:1019B0000CF01EEC0AF0174A182A17501224D96EA0
:1019C00018501320DA6EDF50166E1650D8A4EBEFC5
:1019D0000CF0EDEF0CF0D2EF0CF01200000E8D6E5B
:1019E000000E8C6E000E896E000E8A6E000E8B6EDD
:1019F000020E966E92689368C70E946E0E0E956EE8
:101A00000E0E0F015E6FC40E5D6F390E5C6F020E1D
:101A10005F6F2F0E5B6F000E856EF18E1200F294D9
:101A20005550D76E54C0D6FF0001CA51CB11D8B45F
:101A30001CEF0DF01EEF0DF02BEF0DF002D82BEF89
:101A40000DF00500FA6ECA51FD6ECB51FE6EF850D6
:101A5000FF6EFA5012001200D00E0B6EFF0E0C6ECD
:101A600009C00DF00AC00EF00B500D260C500E22CE
:101A70000E500AE10A0E0D5CD8A041EF0DF044EFC4
:101A80000DF0010E45EF0DF0000E096E0A6A12000E
:101A900009C00BF00AC00CF050EF0DF0094A0A2AF9
:101AA00009C0D9FF0AC0DAFFDF50D8A45AEF0DF001
:101AB0005CEF0DF04EEF0DF00B50095C096E0C5011
:101AC0000A580A6E1200D59C0B0ED76EDB0ED66E2E
:101AD000D650D7CF0BF00C6A0BC00CF00B6A0B1072
:101AE000546E0C50556EF294F28A8C0E096E1C0ED8
:101AF0000A6E22EC0EF0940ED56E12000001C65153
:101B0000C711D8B486EF0DF088EF0DF095EF0DF00A
:101B100002D895EF0DF00500FA6EC651FD6EC75163
:101B2000FE6EF850FF6EFA50120012000001C8510C
:101B3000C911D8B49EEF0DF0A0EF0DF0ADEF0DF090
:101B400002D8ADEF0DF00500FA6EC851FD6EC95117
:101B5000FE6EF850FF6EFA501200120000EE60F0B8
:101B6000400EEE6AE806FDE1536A526A516A506A15
:101B70004F6A4E6A56905692000EF86E000178EF4A
:101B800007F009500B02F3CF0DF0F4CF0EF009501F
:101B90000C02F3500E260A500B02F3500E260DC015
:101BA00009F00EC00AF01200F090F19A8A0E096E48
:101BB0001C0E0A6E36EC0EF0F086F092F198880E4C
:101BC000096E1C0E0A6E31EC0EF0F08812000E6EDB
:101BD0000E380F0B0C6E0EC00DF084800C50F6EC1E
:101BE0000DF00D50F6EC0DF0849012000B6E849405
:101BF00084840B5027EC0CF0030E0A6E980EE82E2E
:101C0000FED70A2EFCD784941200096EACA20BEF0B
:101C10000EF00DEF0EF006EF0EF009C0ADFF120052
:101C20002CEC0EF0EEEC0CF027EC0EF0D4EC0DF0FA
:101C300063EC0DF01200000EF6EC0DF00C0EF6EC5D
:101C40000DF0120009C0CAF00AC0CBF01200600EFD
:101C5000D36E000ED26E1200D08EF184F09CF09EF6
:101C6000120009C0C6F00AC0C7F0120009C0C8F0CF
:101C70000AC0C9F01200F0927EEC0DF01200F09054
:0E1C800096EC0DF0120012001200120012007D
:020000040020DA
:08000000FFFFFFFFFFFFFFFF00
:020000040030CA
:0E00000000285F3CFFD385FF0FC00FE00F40CC
:00000001FF
